:020000040800F2
:10000000F817002001010008632B0008F5260008FE
:10001000612B00084D060008313700080000000081
:10002000000000000000000000000000153500087E
:10003000C7060008000000006932000817350008F4
:100040001B0100081B0100081B0100081B01000820
:100050001B0100081B0100081B0100081B01000810
:100060001B0100081B0100081B0100081B01000800
:100070001B0100081B0100081B0100081B010008F0
:100080001B0100081B0100081B0100081B010008E0
:100090001B0100081B0100081B0100081B010008D0
:1000A0001B010008953500081B0100081B01000812
:1000B0001B0100081B0100081B0100081B010008B0
:1000C0001B0100081B0100081B0100081B010008A0
:1000D0001B0100081B0100081B0100081B01000890
:1000E0001B0100081B0100081B010008DFF80CD0F1
:1000F00000F0CCF90048004799390008F8170020B3
:100100000648804706480047FEE7FEE7FEE7FEE7B1
:10011000FEE7FEE7FEE7FEE7FEE7FEE793350008B1
:10012000ED000008202A04DB203A21FA02F0002129
:10013000704721FA02F3D040C2F1200291400843F7
:100140001946704740EA01039B0703D009E008C93C
:10015000121F08C0042AFAD203E011F8013B00F88C
:10016000013B521EF9D27047D2B201E000F8012BD8
:10017000491EFBD270470022F6E710B513460A4627
:1001800004461946FFF7F0FF204610BD2DE9FE4F4B
:1001900081EA030404F0004421F0004100944FF090
:1001A000000B23F0004350EA01045ED052EA03043E
:1001B0005BD0C3F30A54C1F30A552C44A4F2F334C0
:1001C0000194A0FB0254C1F3130141F48011C3F365
:1001D000130343F4801301FB024400FB034E840A23
:1001E000970A44EA815447EA8357A4FB07680295BB
:1001F0008D0A05FB07854FEA932C04FB0C54270559
:10020000029D4FEA065847EA1637B5EB08056EEB34
:10021000070C870E920E47EA811742EA8312A7FB6A
:100220000201B6EB0B0164EB00042B0D43EA0C3327
:100230005E1844EB1C50DA465146E7FB0201C5F359
:1002400013044FEA0B3343EA14534FEA0432019C80
:1002500043EA0603A4F10C040294009CCDE900B427
:1002600000F0C5F803B0BDE8F08F00200146F9E7C3
:1002700070B521F0004303430CD0C1F30A550024AC
:10028000D5EB040564EB0403D617AD1AB34102DBCA
:100290000020014670BD201841EB025170BD0EB523
:1002A00040F2334102910021CDE900110A460B468C
:1002B00000F09DF803B000BD20F00040C10DC0F378
:1002C000160040F400007F2901DA002070479629CB
:1002D00003DCC1F19601C8407047963988407047E9
:1002E00001F0004330B421F0004150EA010206D091
:1002F0000A0DA2F56072C1F31301002A02DC30BCC2
:1003000000207047440F44EAC104C100E01830BC2B
:1003100000EBC25000F025B830B50B460146002076
:100320002022012409E021FA02F59D4205D303FAB7
:1003300002F5491B04FA02F52844151EA2F1010238
:10034000F1DC30BD202A04DB203A00FA02F1002063
:1003500070479140C2F1200320FA03F31943904003
:1003600070470029A8BF7047401C490008BF20F013
:100370000100704710B4B0FA80FC00FA0CF050EAAB
:10038000010404BF10BC704749B1CCF1200421FA2C
:1003900004F411FA0CF118BF012121430843A3EB27
:1003A0000C01CB1D4FEA00614FEA102042BF002034
:1003B00010BC704700EBC35010440029A4BF10BC10
:1003C0007047401C490008BF20F0010010BC704776
:1003D00010B5141E73F1000408DA401C41F100014D
:1003E00092185B411A4301D120F0010010BD2DE9A4
:1003F000F04D92469B4611B1B1FA81F202E0B0FA9B
:1004000080F220329046FFF79DFF04460F4640EAF7
:100410000A0041EA0B0153465A46084313D01146DD
:1004200053EA010019D0C8F140025046FFF77AFEA6
:1004300005460E46504659464246FFF783FF08439D
:1004400005D0012004E020463946BDE8F08D0020AB
:10045000054346EAE0762C4337430A986305E40AED
:10046000A0EB08000022FD0A44EA47540A3002D5F6
:1004700000200146E9E7010510196941DDE9084559
:1004800000196941BDE8F04DA2E70000064C074D98
:1004900006E0E06840F0010394E807009847103454
:1004A000AC42F6D3FFF726FE205A0008405A000857
:1004B00070B58C1810F8015B15F0070301D110F826
:1004C000013B2A1106D110F8012B03E010F8016B53
:1004D00001F8016B5B1EF9D12B0705D40023521ED6
:1004E0000DD401F8013BFAE710F8013BCB1A921C3E
:1004F00003E013F8015B01F8015B521EF9D5A1423C
:10050000D8D3002070BD000070B504460068816833
:10051000C943C90717D1816821F00101816001F049
:1005200039F805460AE000BF01F034F8401B022804
:1005300004D920688068C043C00706D0206880685E
:10054000C043C007F0D0002070BDA06A40F010008A
:10055000A062E06A40F00100E062012070BD10B5C9
:100560000146406A826A12F0500F05D0006A026BA1
:10057000BDE8104008461047816A41F4007181626D
:1005800001688968C1F3424107290CD1017B51B947
:10059000816A21F480718162816AC90403D4816A0D
:1005A00041F00101816200F013FD10BD10B5406AF9
:1005B000816A41F040018162C16A41F00401C16277
:1005C00000F008FD10BD10B5406A00F002FD10BD3E
:1005D000F8B500260446009600688168C943C9073B
:1005E0002DD0816841F001018160164816490068EC
:1005F000B0FBF1F000E0401E00900028FBD100F0BD
:10060000C9FF054616E000BF00F0C4FF401B0228EA
:1006100010D920688068C043C0070BD0A06A40F0A2
:100620001000A062E06A40F00100E06284F82460FB
:100630000120F8BD20688068C043C007E4D10020D5
:10064000F8BD00001000002040420F00FEE700004F
:1006500010B54FF4805400222146084800F095FF61
:100660002146074C0022204600F08FFF0122D102D4
:10067000204600F08AFF002010BD0000000C014061
:100680000008014001B54FF47A730122694602481F
:1006900001F030FC08BD00006002002030B590F889
:1006A00040500124AC40C56B6C60046863604368D3
:1006B000102B036803D099600068C26030BD9A6057
:1006C0000068C16030BD704708B512A003F032F871
:1006D000FFF7BEFF10B14FF0FF3008BD15A003F0CB
:1006E00029F800F02FF900F069F8FF200090B423FA
:1006F000FA227A21184802F00BFDFF2002F07CFB61
:10070000154800F073F84FF47A7000F037FE0020BF
:1007100008BD000044656275673A204550445F3269
:10072000696E31335F56335F746573742044656D51
:100730006F0D0A0044656275673A20652D5061703F
:10074000657220496E697420616E6420436C656136
:10075000722E2E2E0D0A00005804002070B504469B
:10076000322000F089F90025605D00F0A3F96D1CCE
:10077000EDB2992DF8D300F047F93F2000F07CF955
:1007800014F8990F00F096F9032000F075F96078DD
:1007900000F090F9042000F06FF9A07800F08AF9D9
:1007A000E07800F087F9207900F084F92C2000F03F
:1007B00063F96079BDE8704000F07CB92DE9F04143
:1007C0001026FA27242000F057F900250024FF20E6
:1007D00000F070F9641CA4B2B442F8D36D1CADB241
:1007E000BD42F3D3BDE8F04100F0B6B92DE9F047C2
:1007F000064610254FF0FA09242000F03DF90024A8
:10080000002704FB05F8F11918F8010000F052F96F
:100810007F1CBFB2AF42F6D3641CA4B24C45EFD3E9
:10082000262000F029F90024002704FB05F8F1191F
:1008300018F8010000F03EF97F1CBFB2AF42F6D3BA
:10084000641CA4B24C45EFD3BDE8F04700F084B976
:100850002DE9F0471027394D8146FC014FF0FA0889
:1008600000222146284600F090FE012000F086FD7F
:1008700001222146284600F088FE3148FFF76EFF2E
:10088000372000F0F9F8002000F014F9002000F003
:1008900011F9002000F00EF9002000F00BF9002003
:1008A00000F008F9402000F005F9002000F002F9FE
:1008B000002000F0FFF8002000F0FCF8002000F01D
:1008C000F9F83C2000F0D8F8802000F0F3F822205E
:1008D00000F0D2F8C02000F0EDF8202000F0CCF8B5
:1008E00000F092F80021F9237922084600F012F96D
:1008F0000021084600F0FAF8242000F0BDF800249A
:10090000002504FB07F600BF09EB0500305C00F092
:10091000D1F86D1CADB2BD42F6D3641CA4B24445FF
:10092000EED3222000F0A8F80F2000F0C3F820201A
:1009300000F0A2F8BDE8F04700F066B800080140FA
:100940003C00002070B501222D4DD40221462846DE
:1009500000F01BFE142000F011FD00222146284665
:1009600000F013FE022000F009FD01222146284676
:1009700000F00BFE142000F001FD642000F0FEFCEE
:1009800000F042F8122000F077F800F03DF8012066
:1009900000F072F8F92000F08DF8002000F08AF8DD
:1009A000002000F087F8112000F066F8032000F026
:1009B00081F80021F9237922084600F0ABF80021E4
:1009C000084600F093F83C2000F056F8052000F0AF
:1009D00071F8212000F050F8002000F06BF8802022
:1009E00000F068F8182000F047F8802000F062F866
:1009F00000F00AF8BDE870400248FFF7AFBE000003
:100A000000080140DB00002070B50CA002F092FE4F
:100A1000104D4FF480742146284600F0B1FD0028A7
:100A20004FF00A0002D000F0A9FCF4E700F0A6FCA9
:100A3000BDE8704008A002F07DBE0000446562750C
:100A4000673A20652D506170657220627573790D6B
:100A50000A0000000008014044656275673A20659D
:100A60002D506170657220627573792072656C65B6
:100A70006173650D0A00000070B506464FF480549E
:100A800000222146094800F080FD094D0022214640
:100A9000284600F07AFD3046FFF7F4FD214628464F
:100AA000BDE87040012200F070BD0000000C014064
:100AB0000008014070B5012206461403214609488A
:100AC00000F063FD084D00222146284600F05DFD40
:100AD0003046FFF7D7FD21462846BDE87040012289
:100AE00000F053BD000C01400008014070B5054600
:100AF0000C464E20FFF7C0FFE8B2FFF7DBFF4F20A8
:100B0000FFF7BAFFE0B2FFF7D5FF200ABDE870405B
:100B1000FFF7D0BF2DE9F04107461C4616460D46AB
:100B20004420FFF7A9FFC7F3C700FFF7C3FFC6F3D1
:100B3000C700FFF7BFFF4520FFF79EFFE8B2FFF7B2
:100B4000B9FF280AFFF7B6FFE0B2FFF7B3FF200AAC
:100B5000BDE8F041FFF7AEBF10B52220FFF78CFFD4
:100B6000C720FFF7A7FF2020FFF786FFBDE8104052
:100B7000FFF74ABF2DE9FC418E48B0F898100A20D3
:100B8000B1FBF0F200FB1213B1FBF0F28AA18D4829
:100B900002F0E0FD8C48FF240094C3888088412740
:100BA00007EBC00082B20021384602F077F9002539
:100BB000854B844A29464120CDE9004502F06AFA76
:100BC000824E00941421F088143083B2B08807EB71
:100BD000800082B2412002F061F9DFF8F481CDE9B2
:100BE0000054B8F8002033461421412002F0EAF9FD
:100BF0001421784B78A20846CDE9004502F04AFA64
:100C00000094F0883221323083B2B08807EB800044
:100C100082B2412002F042F9CDE90054B8F8022036
:100C200033463221412002F0CDF96A4B6BA23221CA
:100C30001420CDE9004502F02DFA0094F0885021EF
:100C4000503083B2B08807EB800082B2412002F0BE
:100C500025F9CDE90054B8F804203346502141204D
:100C600002F0B0F95B4B5EA250211420CDE90045A3
:100C700002F010FA0094F0886E216E3083B2B088D2
:100C800007EB800082B2412002F008F9CDE9005460
:100C9000B8F8062033466E21412002F093F94D4BFF
:100CA00050A26E211420CDE9004502F0F3F9009422
:100CB000F0888C218C3083B2B08807EB800082B240
:100CC000412002F0EBF8CDE90054B8F80820334693
:100CD0008C21412002F076F93E4B43A28C21142056
:100CE000CDE9004502F0D6F90094F088AA21AA3097
:100CF00083B2B08807EB800082B2412002F0CEF8C8
:100D0000CDE90054B8F80A203346AA21412002F068
:100D100059F9304B35A2AA211420CDE9004502F043
:100D2000B9F90094F088C821C83083B2B08807EBC5
:100D3000800082B2412002F0B1F8CDE9005498F869
:100D40000C00334600F00102C821412002F03AF9BC
:100D5000204B27A2C8211420CDE9004502F09AF9C2
:100D60000094F088E621E63083B2B08807EB80007B
:100D700082B2412002F092F8CDE9005498F80C00BC
:100D80003346C0F30012E621412002F01BF9114B5B
:100D900018A2E6211420CDE9004502F07BF90948AC
:100DA0001430FFF755FD642000F0E8FA0020BDE89C
:100DB000FC810000440300204261743A25642E2522
:100DC00064560000440400207C0100208C010020B7
:100DD0001E040020840100204C783A004C793A002F
:100DE0004C7A3A0052783A0052793A00527A3A00F4
:100DF0004B6C3A004B723A0072B6FEE7F8B500252C
:100E00000446009590F82400012808D0012084F8B9
:100E100024002046FFF778FB060002D053E00220B2
:100E2000F8BDA06A20F4885040F00200A0620220C1
:100E300000F052FC26490968B1FBF0F0400000E0E8
:100E4000401E00900028FBD12046FFF7C1FB206820
:100E5000816841F00801816000F09CFB074608E0D2
:100E600000F098FBC01B0A2803D92068806800079F
:100E700015D4206880680007F2D42068816841F0AA
:100E80000401816000F086FB074612E000F082FB5F
:100E9000C01B0A280DD920688068400709D5A06AC0
:100EA00020F0020040F01000A06284F824500120DD
:100EB000F8BD206880684007E8D4A06A20F00200EE
:100EC00040F00100A06284F824503046F8BD0000D4
:100ED00010000020F8B50024009490F82420254646
:100EE000012A12D0012280F824204A681F23072AF1
:100EF0000DD20668776B521E02EB820293409F432D
:100F00000B6893401F43776319E00220F8BD066821
:100F10000D2A0AD2376BD21F02EB820293409F4305
:100F20000B6893401F43376309E0F76A0D3A02EB01
:100F3000820293409F430B6893401F43F7620A6805
:100F4000072306680A2A0AD3F7680A3A02EB420224
:100F500093409F438B6893401F43F76008E03769D5
:100F600002EB420293409F438B6893401F433761DB
:100F70000A68102A01D0112A20D1124B02689A4225
:100F800017D193681B0219D4936843F4000393604C
:100F90000968102912D10C490C4A0968B1FBF2F119
:100FA00001EB8101490000E0491E00910029FBD1BD
:100FB00004E0816A41F020018162012480F824501C
:100FC0002046F8BD002401401000002040420F00E0
:100FD00070477047704700002DE9F0414FF000075F
:100FE00004003D467ED0A06A002628B9E66284F857
:100FF0002460204600F07EF82046FFF785FAA16ABB
:10100000C90600D420B1A06A40F01000A06269E0D7
:10101000A16A21F4885141F00201A1626268E1698C
:10102000237B0A4347EA43010A43A1684FF48077D0
:10103000B94209D0012907D05FF0000194F814C02B
:10104000BCF1010F02D00AE03946F7E7F3B1A36A19
:1010500043F02003A362E36A43F00103E3622368E1
:10106000D3F804C02CF4694C4CEA010CC3F804C05A
:1010700021688B68DFF870C003EA0C0313438B60B0
:10108000A168B9420BD0012909D00CE0DFF85CC09F
:10109000A3690CEB43330B4343F40061DFE7218A80
:1010A0000D05A5F580152168CB6A23F470032B4349
:1010B000CB62216889680E4B1940914208D1E662E3
:1010C000A16A21F0020141F00101A162BDE8F081B5
:1010D000A06A20F0020040F01000A062E06A40F038
:1010E0000100E0620120F1E7FDF7E1FF00E0FFFF12
:1010F000FE0E1FFF70B586B00026054600960196CD
:10110000029603960068214988423DD120498869AA
:1011100040F400708861886900F400700490886968
:1011200040F004008861886900F004000490886938
:1011300040F0080088618869032400F008000490EA
:101140003E20CDE900046946124800F029F90094D8
:1011500069461148019400F023F9114C0F48C4E985
:1011600000068020C4E902604000206180006061C8
:101170002020A0610002E061204600F099F808B14B
:10118000FFF73AFE2C62656206B070BD0024014094
:101190000010024000080140000C0140080002401D
:1011A000C40100202DE9F047894604463B49006808
:1011B0003B4F0E1D9046884201D0B84207D130689F
:1011C00010F4702F03D001252846BDE8F08794F86D
:1011D000240001280CD0012084F824002046FFF7C9
:1011E000F7F905004FF0000004D084F82400EBE785
:1011F0000220EAE7A16A40F60162914341F480715E
:10120000A1622168B94218D1326812F4702F14D04B
:10121000A16A41F48011A1623168490505D5A16A2E
:1012200021F4005141F48051A162A16AC9040AD598
:10123000E16A21F00601E16206E0A26A22F480126E
:10124000A2624968E9E7E06284F82400216A15484F
:101250008862216A1448C862216A144808632168B8
:101260006FF0020008602068816841F4807181603D
:10127000216843464A464C31206A00F047F820680E
:101280008168C1F342410729816803D041F480118C
:10129000816099E741F4A001FAE7000000240140D1
:1012A000002801405F050008C7050008AD050008DB
:1012B00030B528B308C8134914221944B1FBF2F120
:1012C0008900C16310498163022141771A6843F69E
:1012D000F0718A43D0E900142143D0E902452C4340
:1012E0002143046921434469214384692143114313
:1012F000196000214163012242770177084630BD21
:10130000012030BDF8FFFDBF0000024070B504466B
:1013100090F82000002501280CD0012084F820003E
:1013200094F821600020012E06D084F820000225C8
:10133000284670BD022070BD022684F82160A0639B
:101340002068066826F0010606602046FFF7A6F929
:10135000E06A00282068016802D041F00E0106E032
:1013600021F0040101602068016841F00A01016078
:101370002068016841F001010160D9E770B50446B9
:1013800000F008F90546601C02D0044800780444C7
:1013900000F000F9401BA042FAD370BD0400002009
:1013A0002DE9F84FDFF8B891002409F1040A0AF199
:1013B000040B23460F270BF1040EC9E00125A540BD
:1013C0002A40AA427DD1674ED1F804C0ACEB060892
:1013D000B44532D014DCBCF1030F3AD009DCBCF1C7
:1013E000000F2AD0BCF1010F1CD0BCF1020F31D18B
:1013F0001DE0BCF1110F17D0BCF1120F2AD119E07A
:10140000B8F5881F19D006DCB8F5803F15D0B8F5BF
:10141000801F1FD111E0B8F5001F0ED0B8F5041FD2
:1014200018D10AE0CB6815E0CB681B1D12E0CB6831
:1014300008330FE0CB680C330CE08B682BB1012B29
:101440004FF0080303D0456104E0042302E0056186
:1014500000E00023FF2A01D8064601E000F104065F
:101460004FEA840501D9A5F12005D6F8008007FAD6
:1014700005FC28EA0C0803FA05F548EA0508C6F851
:1014800000804D68ED0062D5374DAE6946F001062B
:10149000AE61AD6924F0030605F001050095334DFA
:1014A00006EB050CDCF80850A607360F07FA06F81D
:1014B00025EA0805DFF8B880404503D14FF0000861
:1014C00017E044E0DFF8AC80404502D14FF001085E
:1014D0000FE0DFF8A480404502D14FF0020808E099
:1014E000DFF89880404502D14FF0030801E04FF04B
:1014F000040808FA06F848EA0508CCF808804D68A0
:10150000D9F80060ED034D4601D5164300E096433F
:101510002E604D68DAF80060AD03554601D51643DC
:1015200000E096432E604D68DBF80060ED025D46FA
:1015300001D5164300E096432E604D68DEF800604A
:10154000AD02754601D5164300E096432E60641C3B
:101550000D682A46E5407FF431AFBDE8F88F000002
:101560000004014000001110001002400000014082
:1015700000080140000C014000100140001401402F
:101580008068084000D0012070470AB101617047AF
:101590000904FBE701488068704700000400002050
:1015A000024881680278114481607047040000207D
:1015B000074810B5016841F010010160032000F0F8
:1015C00079F80F2000F006F800F024F8002010BD94
:1015D0000020024070B50D4D04464FF47A71287812
:1015E000B1FBF0F00A490968B1FBF0F000F026FE0B
:1015F00048B9102C07D200222146501E00F03AF8BC
:1016000000206C6070BD012070BD0000040000204F
:10161000100000200E4808B5816941F00101816188
:10162000816901F001010091C16941F08051C161FE
:10163000C06900F080500090052000F03BF805489C
:10164000416821F0E06141F00071416008BD000097
:101650000010024000000140002809DB00F01F02DA
:10166000012191404009800000F1E020C0F8001104
:1016700070470000F0B40E4B1B680C46C3F3022306
:10168000C3F10705042D00D90425191D072901D22E
:10169000002300E0DB1E012606FA05F1491E214069
:1016A00099409E40761E16403143F0BC02F066B869
:1016B0000CED00E0064900F0070208684FF6FF0352
:1016C000184040EA0220034A1043086070470000B7
:1016D0000CED00E00000FA0510B529A401461DCC70
:1016E00086B08DE81D002AA02A4C006804900020D6
:1016F000012923D002293AD010291DD1616822681E
:10170000D20119D5C1F38342C9031DF8020009D5DE
:10171000616804AAC1F34041515C1F4AB2FBF1F178
:10172000484301E01D4948436168490204D4400030
:101730005FF00301B0FBF1F006B010BD226AC2F306
:101740000121012903D1920701D5C803F4E7022939
:1017500005D1626A920702D549F64040ECE70329B9
:10176000EAD121688903E7D54FF22440E4E700F08D
:1017700033F96168C1F38131491C4900DAE700009F
:1017800002030405060708090A0B0C0D0E0F1010C2
:10179000010200000010024000127A0000093D0022
:1017A0002DE9F84305460078354CC00754D0E06970
:1017B0000026C00008D4E06940F08050E061E06994
:1017C000012600F0805000902E480168C90512D40F
:1017D0000168804641F480710160FFF7DBFE074637
:1017E00005E000BFFFF7D6FEC01B642823D8D8F859
:1017F0000000C005F6D5206A10F4407021D0A988F9
:1018000001F4407181421CD0206A1F49012220F45A
:1018100040700A6000220A602062C00711D0FFF702
:10182000B9FE074641F2883808E000BFFFF7B2FE74
:10183000C11B414502D90320BDE8F883206A800717
:10184000F4D5206A696820F44070084320621EB114
:10185000E06920F08050E0612878800705D5606855
:10186000A96820F44040084360602878C00605D588
:101870006068E96820F48000084360600020DBE7CE
:101880000010024000700040400442422DE9F04741
:101890000F46050061D0434E306800F00700B842A3
:1018A00009D2306820F0070038433060306800F01B
:1018B0000700B84251D128683B4C810712D5400738
:1018C00003D5606840F4E06060602878000703D5C5
:1018D000606840F4605060606068A96820F0F000C3
:1018E000084360602878C00728D06868012810D0B5
:1018F0002168022810D0890700292EDA616821F0BA
:10190000030101436160FFF745FE804641F28839DB
:101910000DE021688903EFE78901EDE7FFF73AFE63
:10192000A0EB0801494502D90320BDE8F0876068B3
:10193000696800F00C00B0EB810FEFD1306800F067
:101940000700B8420BD9306820F0070038433060F8
:10195000306800F00700B84201D00120E5E72878A0
:10196000400705D56068E96820F4E06008436060DE
:101970002878000706D56068296920F4605040EA9D
:10198000C100606000F038F86168084AC1F30311D3
:10199000515CC8400649086006480068FFF71AFE17
:1019A0000020C2E700200240001002408C3A0008EC
:1019B000100000200800002004480549006849681C
:1019C000044AC1F30221515CC84070471000002056
:1019D000001002409C3A0008044805490068496824
:1019E000044AC1F3C221515CC84070471000002076
:1019F000001002409C3A000812A185B00FC98DE882
:101A00000F0014A0144A006804905168134801F0B4
:101A10000C03042B10D0082B0ED1C1F38343C90350
:101A20001DF803000AD5516804AAC1F34041515C76
:101A30000A4A5043B0FBF1F005B0704708494843EB
:101A4000FAE7000002030405060708090A0B0C0D5B
:101A50000E0F1010010200000010024000127A0068
:101A600000093D002DE9F84F040070D02078C04DEA
:101A7000C00749D06868C0F38100012807D06868B2
:101A8000C0F38100022809D16868C00306D5286820
:101A9000800339D560680028E7D035E06068B0F58C
:101AA000803F0BD010B1B0F5A02F11D0286820F4E2
:101AB00080302860286820F4802002E0286840F404
:101AC00080302860606890B1FFF764FD06460AE048
:101AD000286840F480202860F0E700BFFFF75AFD37
:101AE000801B642873D828688003F7D50CE0FFF7C3
:101AF00051FD064605E000BFFFF74CFD801B642842
:101B0000F0D828688003F7D420789A4E80074FF0E9
:101B100001094FF0000839D5686810F00C0F07D0A4
:101B20006868C0F38100022809D16868C00306D440
:101B30002868800714D52069012808D110E02069A1
:101B4000B0B1C6F80090FFF725FD074605E00AE1B1
:101B5000FFF720FDC01B0228C4D828688007F7D5EE
:101B60002868616920F0F80040EAC10028600DE0B3
:101B7000C6F80080FFF70EFD074604E0FFF70AFDF8
:101B8000C01B022823D828688007F7D420780007D4
:101B90002CD57948A169D9B1C0F80090FFF7FAFCBB
:101BA000074604E0FFF7F6FCC01B02280FD8686A5E
:101BB0008007F7D571484FF4FA510068B0FBF1F097
:101BC000009000BF0098411E0091FAD20EE080E024
:101BD000C0F80080FFF7DEFC074604E0FFF7DAFC00
:101BE000C01B022875D8686A8007F7D420784007A0
:101BF00060D5E8690027C00008D4E86940F080504B
:101C0000E861E869012700F0805000905C480168B5
:101C1000C90513D40168834641F480710160FFF760
:101C2000B9FC824606E000BFFFF7B4FCA0EB0A0057
:101C300064284ED8DBF80000C005F5D5E06801281F
:101C40000AD008B1052813D0286A20F001002862C4
:101C5000286A20F0040002E0286A40F001002862AF
:101C6000E06841F2883B98B1FFF794FC82460BE0B4
:101C7000286A40F004002862EEE700BFFFF78AFC04
:101C8000A0EB0A0159455AD8286A8007F6D50CE01E
:101C9000FFF780FC824605E0FFF77CFCA0EB0A0121
:101CA00059454CD8286A8007F6D41FB1E86920F05E
:101CB0008050E861E06988B36968C1F38101022955
:101CC00044D00228C6F8608004D0FFF763FC0446C5
:101CD00038E034E0FFF75EFC074604E0FFF75AFC0B
:101CE000C01B02282BD828688001F7D4206AB0F5E1
:101CF000803F05D16868A16820F40030084368601F
:101D0000D4E908010843696821F474110843686044
:101D1000C6F86090FFF73EFC044606E025E000BFF1
:101D2000FFF738FC001B022809D828688001F7D586
:101D30001BE000BFFFF72EFC001B022802D9032086
:101D4000BDE8F88F28688001F4D40EE00128F7D0B0
:101D50006868226A00F48031914204D1616A00F41B
:101D60007010884201D00120EAE70020E8E7000077
:101D70000010024000004242800442421000002055
:101D80000070004070B5040009D0606A002540B1C1
:101D900025616561A56294F8510040B10CE0012015
:101DA00070BD6068B0F5827FF4D0E561F2E784F839
:101DB0005050204600F040F8022084F8510020687E
:101DC000016821F040010160A088218900F482703F
:101DD00001F404410843A18901F400610843217C16
:101DE00001F002010843217D01F001010843218B2C
:101DF00001F400710843217F01F03801084394F891
:101E0000201001F080010843218D01F400510843A6
:101E100021680860A069042101EA10402168486037
:101E20002068C16921F40061C1616565012084F801
:101E30005100002070BD000070B586B000240094F1
:101E4000019402940394264E056826490222032336
:101E50002548B54228D18D6945F480558D618D693D
:101E600005F4805504958D6945F008058D618969F3
:101E7000039301F0080104912821CDE9001269467D
:101E80000546FFF78DFA1020CDE900046946284683
:101E90000294FFF785FA1548416841F0E06141F08E
:101EA0000101416006B070BD114CA542FAD1CC6968
:101EB00044F48044CC61CC6904F4804404948C697B
:101EC00044F008048C618969039301F008010491CE
:101ED0004FF42041CDE900126946FFF761FAE1E7CE
:101EE0000030014000100240000C014000000140A1
:101EF000003800402DE9F84F044690F850000027C4
:101F00001D461646894601280DD04FF0010B84F876
:101F100050B0FFF73FFB804694F85100BA460128C5
:101F200004D0022793E00220BDE8F88FB9F1000F3A
:101F300073D0002E71D0032084F85100C4F854A04F
:101F4000C4F83090A686E686C4F838A0A4F83CA071
:101F5000A4F83EA0C4F844A0C4F840A0A068B0F51E
:101F6000004F09D12068016821F04001016020681C
:101F7000016841F48041016020680168490603D48A
:101F8000016841F040010160E068B0F5006F6068F1
:101F900003D030B3012E24D041E008B1012E1CD172
:101FA000206B21680088C86006E020688168890786
:101FB00009D5216B0988C160206B801C2063E08EED
:101FC000401EE08609E0FFF7E5FAA0EB0800A84212
:101FD00002D3681C01D031E07DB3E08E0028E4D14B
:101FE00020E0206B21680078087306E02068816893
:101FF000890709D5216B09780173206B401C206388
:10200000E08E401EE0860AE0FFF7C4FAA0EB08006D
:10201000A84203D3681C02D010E017E06DB1E08E37
:102020000028E3D142462946204601F0F7F908B1DD
:1020300020206065A06818B106E0FFE7032706E0EE
:102040002068C16880680090606D00B1012784F845
:1020500051B084F850A0384666E72DE9F84F0446A1
:1020600090F8500000270A9E1D4692468B464FF07E
:10207000010901280ED0012084F85000FFF78AFAE8
:10208000804694F85100616801280CD0B1F5827F38
:1020900007D102E00220BDE8F88FA16809B9042841
:1020A00001D00227C2E0BBF1000F27D0BAF1000F28
:1020B00024D01DB394F85100042802D0052084F8E0
:1020C000510000206065C4F838A0E587A587C4F8F2
:1020D00030B0E586A5862064606420680168490602
:1020E00003D4016841F040010160E068B0F5006F81
:1020F000606805D0E8B3012D46D07FE0012795E068
:1021000008B1012D39D1206B21680088C860206B8F
:10211000801C2063E08E401EE0862EE020688168EF
:1021200089070FD5E18E69B1B9F1010F0AD1216B91
:102130000988C160206B801C2063E08E401EE08611
:102140004FF0000920688168C9070CD0E18F51B1B8
:10215000C068A16B0880A06B801CA063E08F401E4C
:10216000E0874FF00109FFF715FAA0EB0800B04235
:1021700000E009E001D3701C50D1E08E0028CDD1E1
:10218000E08F0028CAD13FE0206B216800780873F7
:10219000206B401C2063E08E401EE0862EE020680D
:1021A000816889070FD5E18E69B1B9F1010F0AD1B4
:1021B000216B09780173206B401C2063E08E401E68
:1021C000E0864FF0000920688168C9070CD0E18FD4
:1021D00051B1C068A16B0870A06B401CA063E08F78
:1021E000401EE0874FF00109FFF7D4F9A0EB08008B
:1021F000B04202D3701C01D010E07EB1E08E002806
:10220000CDD1E08F0028CAD142463146204601F0A8
:1022100005F928B101272020606507E0032705E0C4
:10222000A06818B92068C16880680090012084F80F
:102230005100002084F8500038462CE710B5401EAD
:10224000B0F1807F01D3012010BD4FF0E024606128
:102250000F21601701F092FA0020A0610720206191
:10226000002010BD7047704770B590F83C20012ADF
:1022700026D0012480F83C40022280F83D200368EB
:102280005A689D6822F070060A6832435A600D4B06
:1022900002689A4208D0B2F1804F05D00A4B9A42A8
:1022A00002D00A4B9A4204D1496825F080031943B1
:1022B000916080F83D40002180F83C10084670BDD8
:1022C000022070BD002C01400004004000080040C6
:1022D00010B5040003D094F83D0010B107E00120D0
:1022E00010BD002084F83C00204600F01FF80220BA
:1022F00084F83D00211D206801F052F9012084F886
:10230000460084F83E0084F83F0084F8400084F8DA
:10231000410084F8420084F8430084F8440084F8C3
:10232000450084F83D00002010BD000008B500689D
:102330000B49884212D10B48816941F400618161E7
:102340008069002200F40060009011461920FFF718
:1023500091F9BDE808401920FFF77EB908BD0000DB
:10236000002C01400010024090F83D10012901D0DE
:1023700001207047022180F83D100168CA6842F0D0
:102380000102CA6000680B49884208D0B0F1804F52
:1023900005D00949884202D00849884204D18168A1
:1023A00001F00701062903D0016841F00101016035
:1023B00000207047002C014000040040000800404D
:1023C00070B5044690F83C00012817D0012584F828
:1023D0003C50022084F83D002068826822F0770299
:1023E00022F47F4282600868502830D00DDC20281B
:1023F0004DD005DC98B310283BD148E0022070BDD9
:10240000302844D0402834D139E0602828D07028C2
:1024100006D0B0F5805F2CD0B0F5005F29D10AE07E
:10242000CB68D1E90121206801F0F0F820688168CB
:1024300041F0770109E0CB68D1E90121206801F082
:10244000E5F82068816841F48041816011E0CA6844
:102450004968206801F0ECF85021206807E016E098
:10246000CA684968206801F0F4F86021206801F02A
:10247000D7F884F83D50002084F83C0070BDCA684D
:102480004968206801F0D4F840212068EFE722680D
:1024900001461046EBE7704770B5044600680169D5
:1024A0004FF00005C943890715D4C168C94389079E
:1024B00011D4E91E0161012020772068806980071E
:1024C000204602D0FFF7E7FF04E000F098F820462E
:1024D00000F096F8257720680169C943490717D4A9
:1024E000C168C943490713D46FF004010161022098
:1024F00020772068806910F4407F204602D0FFF7E3
:10250000CAFF04E000F07BF8204600F079F8257758
:1025100020680169C943090716D4C168C94309077E
:1025200012D46FF008010161042020772068C0698F
:102530008007204602D0FFF7AEFF04E000F05FF80E
:10254000204600F05DF8257720680169C943C90677
:1025500017D4C168C943C90613D46FF010010161D3
:10256000082020772068C06910F4407F204602D000
:10257000FFF791FF04E000F042F8204600F040F839
:10258000257720680169C943C90708D1C168C943D3
:10259000C90704D1891E0161204600F033F8206884
:1025A0000169C943090609D4C168C943090605D4AC
:1025B0006FF0800101612046FFF754FE2068016939
:1025C000C943490609D4C168C943490605D46FF017
:1025D00040010161204600F023F820680169C943E9
:1025E00089060BD4C168C943890607D46FF020015E
:1025F00001612046BDE87040FFF735BE70BD7047F1
:102600007047000010B500680449884205D100F009
:10261000C5FEBDE8104000F0B7B810BD002C014069
:10262000704770B5040004D094F83D00002510B147
:1026300006E0012070BD84F83C50204600F022F8EE
:10264000242084F83D002068C16821F40051C16055
:10265000204601F011F82068016921F490410161E0
:102660002068416921F02A0141612068C16841F474
:102670000051C1602564202084F83D0084F83E00AC
:10268000002070BD30B585B0002400940194029400
:10269000039400681449884224D11448816941F4A4
:1026A00080418161816901F480410491816941F037
:1026B0000401816180690E4D00F0040004904FF424
:1026C0000070009002200190032003906946284684
:1026D000FEF766FE2815CDE90004694628460294F7
:1026E000FEF75EFE05B030BD00380140001002402C
:1026F00000080140FEE7000070B50021174C0846B5
:102700000A230022C2EBC2050544521C34F81550BE
:102710000A2A2944F6DB491DB1FBF3F104EB400220
:10272000401CA2F88C1000210728EADB34F8980F2F
:10273000FDF7B5FD4FF06632094BFDF727FD6FF051
:102740000B02FDF795FD0022064BFDF71FFDFDF77F
:10275000C7FDFDF7B1FD208070BD000044030020DF
:1027600066660A400000344010B50548FEF746FB97
:10277000BDE81040462203490148FEF713BD0000A2
:1027800094010020440300202DE9F047DFF87C90FD
:1027900000251F4F89F800502E4609F1040800BF9C
:1027A00007EB061406EB4601E580A580658108EB82
:1027B0008100A58101894068FEF7E2FE58B1002042
:1027C0002080618888420FD038B10121B14089F85A
:1027D0000010A08014E00120F2E722890AB1A18153
:1027E00000E0E18025810AE050B1218941B9E18909
:1027F000491C89B2E181642902D920816081E58187
:10280000761C6080032ECBDBBDE8F087140000202F
:10281000DE030020FEB500213048009101912E4AD0
:1028200002910260921582600124047301750725EC
:102830004FF460220561C2614160FEF7CDFB08B133
:10284000FEF7DAFA009401940524694623480294BD
:10285000FEF740FB08B1FEF7CFFA0220009001908E
:1028600069461E48FEF736FB08B1FEF7C5FA042696
:10287000032769461948CDE90067FEF72BFB08B12D
:10288000FEF7BAFACDE9004669461448FEF722FB86
:1028900008B1FEF7B1FA0820CDE9000469460F48F7
:1028A000FEF718FB08B1FEF7A7FA092000900620F2
:1028B000019069460948FEF70DFB08B1FEF79CFA46
:1028C000CDE9007569460548FEF704FB002801D0F4
:1028D000FEF792FAFEBD00000024014094010020A2
:1028E000054808B5416941F001014161406900F0C6
:1028F0000100009008BD0000001002402DE9F047E3
:1029000086B000254548009501950295039581699B
:1029100041F010018161816901F010010491816928
:1029200041F020018161816901F0200104918169F8
:1029300041F004018161816901F004010491816920
:1029400041F0080181618069DFF8D48000F008005F
:102950004FF400540490002221464046FEF715FE35
:10296000DFF8C090012240214846FEF70EFEDFF856
:10297000B8A000224FF486515046FEF706FE4FF4F1
:10298000C057002239464846FEF7FFFD0094012457
:102990000226CDE90246694640460194FEF700FD55
:1029A0004020CDE90004CDE9024669464846FEF7DD
:1029B000F7FC48F28000CDE90005694602944846DC
:1029C000FEF7EEFC7810CDE900056946029450460A
:1029D000FEF7E6FC20038DE8710069465046FEF7DD
:1029E000DFFC2002CDE90005694648460295FEF766
:1029F000D7FC01AA009782E8700069464846FEF7B6
:102A0000CFFCC020CDE90004CDE90246694650461E
:102A1000FEF7C6FC06B0BDE8F087000000100240DB
:102A20000010014000080140000C0140104810B5A2
:102A30000E4901604FF48271416000218160C160E4
:102A40004FF400720161C0E905121822C0E90721A4
:102A5000416281620A21C162FFF794F9002803D024
:102A6000BDE81040FEF7C8B910BD000000300140BD
:102A700008020020104810B50E4901604FF4827121
:102A8000416000218160C1604FF400720161C0E9C2
:102A900005122022C0E90721416281620A21C16238
:102AA000FFF770F9002803D0BDE81040FEF7A4B985
:102AB00010BD0000003800406002002010B586B054
:102AC0000024184800940194029403940494144937
:102AD000059401604721C0E9011442F20F71C0E979
:102AE00003148021C0E90541FFF7F2FB08B1FEF7AE
:102AF00083F94FF48050009069460A48FFF760FC64
:102B000008B1FEF779F9049404A906480594FFF783
:102B1000ABFB002801D0FEF76FF906B010BD000036
:102B2000002C0140B80200200C4810B50A49016091
:102B30004FF4E1314160002181600C22C160C0E9A5
:102B400004128161C161FFF76CFD002803D0BDE86C
:102B50001040FEF751B910BD0038014000030020BD
:102B6000FEE7FEE71CB510A1D1E90001CDE90001A7
:102B7000082000F039FC05226946302000F0F4F806
:102B800005226946102000F025F8002069460A5CFD
:102B9000A52A03D1401CC0B20528F8D3052801D0CE
:102BA00001201CBD00201CBDA5A5A5A5A5000000F9
:102BB00010B500F053F8064C002280212046FEF7A5
:102BC000E4FC20460122BDE810404021FEF7DDBCB8
:102BD000000C01402DE9F041DFF8408015460F461A
:102BE0000446002240214046FEF7CFFC21460C4817
:102BF00000F080FC0646002406E0FF21084800F0B3
:102C000079FC3855641CE4B2AC42F6D30122402171
:102C10004046FEF7BAFC3046BDE8F081000C0140AA
:102C20000802002070B50B4D0446002240212846C2
:102C3000FEF7ABFC2146084800F05CFCFF2106488B
:102C400000F058FC0446012240212846FEF79DFC76
:102C5000204670BD000C01400802002010B5094C50
:102C60002068016821F0400101600020206160615E
:102C70002046FFF787F82068016841F040010160B5
:102C800010BD00000802002010B5194C0022802160
:102C90002046FEF77AFC05221649302000F064F841
:102CA00014490522491D2A2000F05EF80121212047
:102CB00000F084F80121222000F080F81521242062
:102CC00000F07CF82821252000F078F80F2126203C
:102CD00000F074F80E21202000F070F8012280210D
:102CE0002046FEF752FCBDE810400120FEF746BB2F
:102CF000000C0140A43A000870B50446102000F012
:102D000073FB174D002280212846FEF73EFC20224F
:102D10002146A02000F028F8012280212846FEF755
:102D200034FC104D4FF4004421462846FEF728FCA1
:102D30000028F9D10720FFF775FF04460146272038
:102D400000F03CF8E00605D5FF21E12000F036F860
:102D5000102070BDA00601D5202070BDFF2070BDE1
:102D6000000C0140000801402DE9F041DFF84480EB
:102D700016460D460446002240214046FEF705FC5B
:102D800021460D4800F0B6FB0746002407E000BFCF
:102D900015F8011B084800F0ADFB641CE4B2B44216
:102DA000F6D3012240214046FEF7EFFB3846BDE84E
:102DB000F0810000000C01400802002070B50C4DAD
:102DC0000E460446002240212846FEF7DEFB21463F
:102DD000084800F08FFB04463146064800F08AFBA5
:102DE000012240212846FEF7D0FB204670BD00009E
:102DF000000C01400802002030B52749CA8A022A87
:102E000008D0042A1BD0072A18D140EA001000225B
:102E1000C3B23CE00022C3B20DE0002006E000BFD8
:102E200002FB04040D68401C80B22B554C8A84427E
:102E3000F6D8521C92B2888A9042EED830BD8301F7
:102E400043EA0013002243EA80030343DBB20CE0B1
:102E5000002005E002FB04040D68401C80B22B55E5
:102E60004C8A8442F6D8521C92B2888A9042EFD89B
:102E700030BD002006E000BF02FB04040D68401CCA
:102E800080B22B554C8A8442F6D8521C92B2888A62
:102E90009042EED830BD00002C0400202DE9F04710
:102EA0001F4616460D468046DDF820900CE044464D
:102EB00006E04A462946204600F048F9641CA4B2C0
:102EC000B442F6D36D1CADB2BD42F0D3BDE8F0877D
:102ED0002DE9F05F81462A481E46DDF82CB0838834
:102EE00088464B4502D3C188414504D2BDE8F05F16
:102EF00024A000F01FBCB088410700D0012101EBE5
:102F0000D000203AF1885043484331684FF0800A9E
:102F10000F1800252FE0002424E000BFBBF1FF0FB5
:102F20003A7804F007012AFA01F002EA000201D01F
:102F30000AB908E082B108EB050081B209EB040090
:102F400080B20A9A06E008EB050081B209EB0400A2
:102F500080B25A4600F0FAF8E043400700D17F1CE7
:102F6000641CA4B2B088A042D8D83079400700D001
:102F70007F1C6D1CADB2F088A842CCD8BDE8F09F94
:102F80002C04002044656275673A205061696E74B4
:102F90005F447261774368617220496E7075742076
:102FA0006578636565647320746865206E6F726D03
:102FB000616C20646973706C61792072616E676501
:102FC0000D0A00002DE9FF4FADF5037D8846DDE9D0
:102FD00090AB814600244FF480771546264639464B
:102FE00042A8FDF7C8F8394602A8FDF7C4F818480A
:102FF00042AA83884B4502D3C188414506D215A019
:1030000000F098FB0DF5077DBDE8F08F0A2102A8BE
:1030100095FBF1F301FB135395FBF1F530330355A9
:10302000641C24B2002DF3D11146002C08DD0319D5
:1030300013F8013C8B55761C641E36B224B2F4E7BB
:10304000CDE900BA41464846869B00F023F8D9E70F
:103050002C04002044656275673A205061696E74E3
:103060005F4469734E756D20496E70757420657884
:10307000636565647320746865206E6F726D616C42
:1030800020646973706C61792072616E67650D0AE6
:10309000000000002DE9FC5F80461B4889460D4674
:1030A00081884446DDF834B01E461746A14203D35A
:1030B000C1888246A94222D2BDE8FC5F134800F0D5
:1030C00039BBB088BAF804300119994203D9F188A4
:1030D000444629448DB2F188BAF806002944814259
:1030E00001D944464D460C983346CDE900B02946F7
:1030F0002046FFF7EDFEB0887F1C204484B23A786A
:10310000002ADED1BDE8FC9F2C040020DC59000819
:1031100070B50D4C049E0025206021816281A6813E
:103120000220E0824E074FEAD10000D0401C6082AE
:10313000A282E381258223B1B42B02D0A280E18058
:1031400070BDA180E28070BD2C040020F0B43B4C27
:10315000A388834234D3E3888B4231D32346E78963
:103160001E895D89CFB15A2F1AD0B42F1CD0B7F564
:10317000877F40D10B46281A401E80B2218AD9B1E0
:10318000012916D0022904D0032934D1F11A491E8D
:103190008BB2281A401E80B20EE003460846EDE7C7
:1031A000711A491E8BB2E9E7301A401E83B2681AC1
:1031B000E2E7F11A491E8BB29E4201D3854203D247
:1031C000F0BC1FA000F0B6BA1C49E58A4C8A096819
:1031D000022D12D0042D21D0072D0CD1444304EB35
:1031E0005304DB075B0FF025DD40085D1201A843A7
:1031F000DA4002430A55F0BC7047444304EBD30461
:103200008020002A0D5D03F0070220FA02F002D0B0
:1032100028430855EFE785430D55ECE7444304EB9D
:10322000930094079B075D0F0A5CC023EB409A4311
:10323000230EEB4013430B54DDE700002C04002069
:1032400044656275673A20457863656564696E67B1
:1032500020646973706C617920626F756E6461724D
:103260006965730D0A000000704710B503460078C9
:10327000012202E09C5C6040521C8A42FADB10BDD5
:1032800070B5FFF739FA414A4FF47A7140F6746429
:10329000B2F88E004843B0FBF4F30846834201DDE8
:1032A000034602E0642B00DA0023394903F57A7300
:1032B0004FF47A750B80B2F88C306B43B3FBF4F3A8
:1032C000834201DD034602E0642B00DA002303F5AC
:1032D0007A734B80B2F89630A3F51673834201DD02
:1032E000034602E0642B00DA002303F57A738B8037
:1032F000B2F892304FF47A756B43B3FBF4F3834228
:1033000001DD034602E0642B00DA002303F57A7343
:10331000CB80B2F890304FF47A756B43B3FBF4F383
:10332000834201DD034602E0642B00DA002303F54B
:103330007A730B81B2F89420A2F51662824201DD05
:10334000024602E0642A00DA002202F57A7211488D
:103350004A810A7B10F8103F63F30002037963F39C
:103360004102037A63F3C302837A63F38202037C2C
:1033700063F30412037D63F34512037E807E63F3DF
:10338000C71260F386120A7370BD00004403002068
:103390001E040020DE0300207047000010B5FFF778
:1033A0006FFF0F4CA5200D222070607004F11001FA
:1033B000A01CFCF7C7FE0F212046FFF756FFE07365
:1033C0002046FFF799FC01460648202901D000223B
:1033D00000E00122BDE810404021FEF7D6B8000011
:1033E0000E040020000801400B4910B50A6813685C
:1033F00023F0400313600A6813684FF6C774234034
:1034000013600A681368034313600868016841F099
:103410004001016010BD00000802002038B50B46D5
:10342000009204460022802100F008F8002804D011
:10343000606D40F020006065032038BD2DE9F84341
:103440001E46914688460446089DFEF7A3F8401B99
:10345000351AFEF79FF8074625480068C0F3CB30C1
:10346000684338E0701C37D0FEF794F8C01BA842C0
:1034700003D215B1009860B32CE02068416821F0B8
:10348000E00141606068B0F5827F0BD1A068B0F5C3
:10349000004F02D0B0F5806F04D12068016821F0A0
:1034A00040010160A06AB0F5005F09D120680168A1
:1034B00021F4005101602068016841F4005101606D
:1034C000012084F85100002084F850000320BDE85A
:1034D000F8830025401E00902068816838EA0100CA
:1034E00004D000214945BDD10020F0E70121F9E7D2
:1034F000100000203EB5FF248DF80810012301AA1A
:1035000002A90094FEF7A9FD08B18DF804409DF8CA
:1035100004003EBD7047FEF743B830B593B0282194
:103520006846FCF728FE14210AA8FCF724FE0025B3
:1035300001200F9510951195010412958DE8230037
:1035400004904FF4E010CDE9081002240794684677
:10355000FEF788FA08B172B6FEE70AA90F2081E8E3
:1035600031004FF48060CDE90D0502210AA8FEF775
:103570008DF908B172B6FEE74FF4004011900F9438
:103580000FA8FEF70DF9002801D072B6FEE713B0C0
:1035900030BD70470148FEF77FBF0000B802002031
:1035A000F0B50268164B174C174D4FF08047984204
:1035B00005D0B84203D0A04201D0A84203D122F0E6
:1035C00070064A683243984205D0B84203D0A04200
:1035D00001D0A84203D122F44074CA6822434C6946
:1035E00022F08002224302608A68C2620A68826214
:1035F000984201D10969016301214161F0BD0000D8
:10360000002C0140000400400008004010B5846810
:1036100042EA032224F47F440A432243826010BD1D
:10362000826822F070020A4342F00701816070470D
:1036300010B5036A046A24F001040462846924F06A
:10364000F00444EA021423F00A020A43846102628D
:1036500010BD10B5036A23F0100303628369046A86
:1036600023F4704343EA023224F0A00343EA011139
:103670008261016210BD000070B5044600680169F6
:10368000E26821F44051114301612169A0680843B7
:10369000616908432168CA6841F20C639A43024396
:1036A000CA6020684169A26921F4407111434161F7
:1036B0001E492068884202D1FEF78EF901E0FEF72C
:1036C0007BF900EBC00101EB00126068642180000F
:1036D000B2FBF0F3B3FBF1F36FF018067343B2FBE8
:1036E000F0F5B2FBF0F605EB8305322303EB05158D
:1036F000B5FBF1F5B6FBF1F605F0F00505EB0615A7
:10370000B2FBF0F6B2FBF0F0B0FBF1F06FF0180294
:10371000504306EB800003EB0010B0FBF1F0216892
:1037200000F00F002844886070BD000000380140A0
:10373000FEE700000FB4054B10B503A9044A029838
:1037400000F03CF810BC5DF814FB00008139000863
:10375000000000200FB4084B10B504A902AA03987A
:1037600000F02CF8044602A9002000F003F92046DE
:1037700010BC5DF814FB0000753900080907090E3C
:10378000002804DB00F1E02080F80014704700F00E
:103790000F0000F1E02080F8141D704702E008C817
:1037A000121F08C1002AFAD170477047002001E0BB
:1037B00001C1121F002AFBD1704700002DE9FF4F05
:1037C0008BB09A460F460546002606E025280BD00A
:1037D00052460D9990476D1C761C28780028F5D12B
:1037E0000FB03046BDE8F08F0024A04601226049AA
:1037F00000E0044315F8013F203B02FA03F00842C1
:10380000F7D128782E2817D115F8010F44F00404B9
:103810002A280ED06FF02F022878A0F13001092954
:103820000AD808EB880102EB410100EB01086D1C8E
:10383000F2E757F8048B6D1C287869283ED006DC27
:103840000028CDD063280BD0642804D136E073283B
:1038500010D075284BD052460D999047761C85E0C4
:1038600017F8040B8DF8000000208DF80100E946E0
:10387000012003E057F8049B4FF0FF3061074FF041
:10388000000401D40AE0641C44450DDA8442FADBEA
:1038900019F804100029F6D106E0641C8442FCDB10
:1038A00019F804100029F8D1264404E019F8010B96
:1038B00052460D999047641EF8D257E001CF4FF061
:1038C0000A0B002802DA40422D2102E0210504D52E
:1038D0002B218DF82410012103E0E10705D02021E0
:1038E000F7E70DF1200908910CE00021F9E701CF7D
:1038F0004FF00A0BF9E75946FCF70EFD01F13002D3
:1039000009F8012D0028F6D1ADEB090000F1200BDC
:10391000600701D44FF00108D84502DDA8EB0B0089
:1039200000E000208046002406E009A85246005D21
:103930000D999047641C761C08988442F5DB04E0DE
:10394000302052460D999047761CB8F10001A8F13D
:103950000108F5DC05E019F8010B52460D99904776
:10396000761CBBF10001ABF1010BF4DC6D1C34E7FC
:10397000092801000A68531C0B6010707047000092
:1039800004490A685206FCD5024AC1B2121D1160F0
:103990007047000000380140FDF70AFEFFF7BDFD4B
:1039A000FEF7ACFFFEF79CFFFEF734FFFFF73EF893
:1039B000FFF760F8FFF7B8F8FFF780F8FEF7D4FEDE
:1039C000FFF7EAFC0520FDF7D9FCFFF7F1F8052029
:1039D000FDF7D4FC4FF47A7405E011A0FFF7AAFEBE
:1039E0002046FDF7CBFCFFF7BDF80028F5D10520F8
:1039F000FDF7C4FC12A0FFF79DFEFFF745F9052077
:103A0000FDF7BCFC16A0FFF795FE1F48FEF7ACFCC7
:103A1000FCF75AFEFDF7AEF80A20FDF7AFFCF9E718
:103A2000D3B2BCFEB2E9D1B0B2BBB5BD4E52463244
:103A3000344C3031CEDECFDFC4A3BFE90D0A000025
:103A40004E524632344C3031CEDECFDFC4A3BFE914
:103A5000D3B2BCFEC1ACBDD3D5FDB3A30D0A0000EB
:103A6000BDF8C8EBCAFDBEDDB7A2CBCDC4A3CABDAD
:103A7000A3ACC3BF3173B7A2CBCDD2BBB4CECAFD0A
:103A8000BEDD0D0A00000000B802002000000000AA
:103A900000000000010203040607080900000000FE
:103AA00001020304344310100134431010010000DC
:103AB00000000000000000000000001010101010B6
:103AC000000010000000006C4848000000000000EA
:103AD0000000001414287C287C285050000000109E
:103AE00038404038487010100000002050200C7002
:103AF000081408000000000000182020544834007A
:103B0000000000101010100000000000000000086D
:103B100008101010101010080800002020101010BD
:103B200010101020200000107C1028280000000039
:103B300000000000101010FE101010000000000027
:103B40000000000000181030200000000000007C81
:103B50000000000000000000000000000030300005
:103B60000000000404080810102020400000003865
:103B70004444444444443800000000301010101005
:103B800010107C00000000384404081020447C0021
:103B90000000003844041804044438000000000CFD
:103BA000141424447E040E000000003C202038043D
:103BB000044438000000001C20407844444438008D
:103BC0000000007C440408080810100000000038C1
:103BD0004444384444443800000000384444443CE1
:103BE0000408700000000000003030000030300099
:103BF000000000000018180000183020000000002D
:103C00000C10608060100C000000000000007C00C0
:103C10007C00000000000000C02018041820C00034
:103C20000000000018240408100030000000384490
:103C3000444C54544C40443800000030102828288C
:103C40007C44EE00000000F8444478444444F8000A
:103C50000000003C4440404040443800000000F078
:103C6000484444444448F000000000FC4450705074
:103C70004044FC000000007E2228382820207000EC
:103C80000000003C4440404E44443800000000EE38
:103C900044447C444444EE000000007C10101010AA
:103CA00010107C000000003C08080848484830001C
:103CB000000000EE444850704844E60000000070E8
:103CC0002020202024247C00000000EE6C6C545442
:103CD0004444EE00000000EE64645454544CEC0084
:103CE0000000003844444444444438000000007854
:103CF0002424243820207000000000384444444428
:103D00004444381C000000F8444444784844E2002D
:103D1000000000344C40380404645800000000FEE9
:103D20009210101010103800000000EE444444447B
:103D300044443800000000EE4444282828101000B5
:103D4000000000EE4444545454542800000000C6BF
:103D5000442810102844C600000000EE4428281013
:103D6000101038000000007C4408101020447C0033
:103D70000000003820202020202020203800004093
:103D80002020201010080808000000380808080843
:103D9000080808083800001010284400000000003F
:103DA00000000000000000000000000000FE001005
:103DB0000800000000000000000000000038443C43
:103DC00044443E00000000C0405864444444F800AD
:103DD00000000000003C4440404438000000000C5B
:103DE00004344C4444443E00000000000038447C4D
:103DF00040403C000000001C207C202020207C0053
:103E00000000000000364C4444443C04380000C02C
:103E1000405864444444EE0000000010007010104C
:103E200010107C000000001000780808080808083E
:103E3000700000C0405C48705048DC00000000305A
:103E40001010101010107C000000000000E8545406
:103E50005454FE000000000000D864444444EE00C6
:103E600000000000003844444444380000000000D2
:103E700000D8644444447840E000000000364C44DC
:103E800044443C040E000000006C302020207C00E4
:103E900000000000003C44380444780000000000AA
:103EA000207C202020221C000000000000CC444484
:103EB000444C36000000000000EE44442828100066
:103EC0000000000000EE445454542800000000009C
:103ED00000CC48303048CC000000000000EE442404
:103EE0002818101078000000007C481020447C0046
:103EF0000000000810101010201010100800001012
:103F000010101010101010100000002010101010D1
:103F100008101010200000000000002458000000CD
:103F20000000000000000000000000000000000091
:103F30000000000000000000000000000000000081
:103F4000000000000C000C000C000C000C000C0029
:103F50000C000C0000000C0000000000000000003D
:103F60000000000000001DC01DC0088008800880FF
:103F70000000000000000000000000000000000041
:103F8000000000000D800D800D800D803FC01B00E3
:103F90003FC01B001B001B001B00000000000000B6
:103FA000000004001F803180318038001E000F00A7
:103FB0000380318031803F000400040000000000D5
:103FC0000000000018002400240018C007801E0014
:103FD000318002400240018000000000000000002B
:103FE0000000000000000F001800180018000C006E
:103FF0001D80370033001D8000000000000000001D
:10400000000000000000070007000200020002009C
:1040100000000000000000000000000000000000A0
:10402000000000000300030006000E000C000C005E
:104030000C000C000E00060003000300000000004E
:1040400000000000180018000C0006000600060022
:104050000600060006000C001C001800000000000E
:1040600000000000060006003FC03FC00F001F8098
:1040700019800000000000000000000000000000A7
:1040800000000000000000000400040004003F8065
:104090000400040004000000000000000000000014
:1040A0000000000000000000000000000000000010
:1040B00000000000060004000C00080008000000DA
:1040C00000000000000000000000000000003F8031
:1040D00000000000000000000000000000000000E0
:1040E00000000000000000000000000000000000D0
:1040F000000000000C000C000000000000000000A8
:10410000000000C000C00180018003000300060021
:104110000C000C00180018003000300000000000F7
:10412000000000000E001B003180318031803180A2
:10413000318031801B000E000000000000000000F4
:104140000000000006003E00060006000600060013
:104150000600060006003FC000000000000000004E
:10416000000000000F00198031803180030006003C
:104170000C00180030003F8000000000000000002C
:10418000000000003F006180018003001F000380E9
:104190000180018061803F000000000000000000FD
:1041A00000000000070007000F000B001B001300B9
:1041B00033003F8003000F8000000000000000007B
:1041C000000000001F801800180018001F00118058
:1041D0000180018021801F0000000000000000001D
:1041E0000000000007801C001800300037003980F4
:1041F0003180318019800F000000000000000000B5
:10420000000000007F0043000300060006000600D7
:1042100006000C000C000C00000000000000000074
:10422000000000001F003180318031801F0031808C
:104230003180318031801F0000000000000000004C
:10424000000000001E0033003180318033801D806B
:104250000180030007003C00000000000000000097
:10426000000000000000000000000C000C00000036
:10427000000000000C000C00000000000000000026
:104280000000000000000000000003000300000028
:104290000000000006000400080008000000000004
:1042A00000000000000000C00300040018006000CF
:1042B00018000400030000C000000000000000001F
:1042C0000000000000000000000000007FC00000AF
:1042D0007FC000000000000000000000000000009F
:1042E000000000000000600018000400030000C08F
:1042F000030004001800600000000000000000003F
:104300000000000000001F003180318001800700A4
:104310000C000C0000000C00000000000000000079
:10432000000000000E0011002100210027002900DC
:1043300029002700200011000E00000000000000EE
:104340000000000000003F000F00090019801980E4
:104350001F8030C030C079E0000000000000000085
:104360000000000000007F003180318031803F007C
:104370003180318031807F000000000000000000AB
:104380000000000000001F4030C06040600060007E
:104390006000604030801F0000000000000000004E
:1043A0000000000000007F00318030C030C030C00D
:1043B00030C030C031807F000000000000000000ED
:1043C0000000000000007F803080308032003E001E
:1043D0003200308030807F8000000000000000004C
:1043E0000000000000007FC03040304032003E003E
:1043F0003200300030007C000000000000000000AF
:104400000000000000001E803180608060006000BD
:1044100067C0618031801F000000000000000000C4
:104420000000000000007BC03180318031803F807F
:104430003180318031807BC000000000000000002E
:104440000000000000003FC0060006000600060055
:104450000600060006003FC000000000000000004B
:104460000000000000001FC0030003000300030061
:104470006300630063003E000000000000000000D5
:104480000000000000007BC03180330036003C009B
:104490003E003300318079C00000000000000000C1
:1044A0000000000000007E0018001800180018002E
:1044B0001840184018407FC00000000000000000B5
:1044C000000000000000E0E060C071C07BC06AC076
:1044D0006EC064C060C0FBE000000000000000008F
:1044E00000000000000073C0318039803D803580BD
:1044F00037803380318079800000000000000000A8
:104500000000000000001F00318060C060C060C07B
:1045100060C060C031801F0000000000000000008B
:104520000000000000007F00318031803180318048
:104530003F00300030007E0000000000000000005E
:104540000000000000001F00318060C060C060C03B
:1045500060C060C031801F000CC01F8000000000E0
:104560000000000000007F003180318031803E007B
:104570003300318031807CE000000000000000004A
:104580000000000000001F803180318038001F00D3
:104590000380318031803F000000000000000000F7
:1045A0000000000000007F804C804C804C800C009C
:1045B0000C000C000C003F00000000000000000098
:1045C0000000000000007BC03180318031803180EC
:1045D0003180318031801F000000000000000000A9
:1045E0000000000000007BC0318031801B001B00F8
:1045F0001B000A000E000E0000000000000000007A
:10460000000000000000FBE060C064C06EC06EC02F
:104610002A803B803B8031800000000000000000C9
:104620000000000000007BC031801B000E000E0067
:104630000E001B0031807BC0000000000000000065
:1046400000000000000079E030C019800F00060073
:104650000600060006001F800000000000000000A9
:104660000000000000003F802180230006000400BD
:104670000C00188030803F80000000000000000027
:104680000000000007800600060006000600060085
:104690000600060006000600060007800000000075
:1046A000000030003000180018000C000C0006005C
:1046B000030003000180018000C000C00000000072
:1046C000000000001E0006000600060006000600AE
:1046D000060006000600060006001E00000000009E
:1046E000000004000A000A00110020802080000061
:1046F00000000000000000000000000000000000BA
:1047000000000000000000000000000000000000A9
:104710000000000000000000000000000000000099
:10472000FFE008000400020000000000000000009C
:104730000000000000000000000000000000000079
:10474000000000000000000000001F000180018048
:104750001F80318033801DC0000000000000000079
:10476000000000007000300030003700398030C099
:1047700030C030C039807700000000000000000029
:10478000000000000000000000001E8031806080FA
:104790006000608031801F00000000000000000009
:1047A000000000000380018001801D803380618053
:1047B0006180618033801DC00000000000000000A7
:1047C000000000000000000000001F00318060C0F9
:1047D0007FC0600030C01F800000000000000000AB
:1047E0000000000007E00C000C003F800C000C00F3
:1047F0000C000C000C003F800000000000000000D6
:10480000000000000000000000001DC03380618037
:104810006180618033801D80018001801F00000065
:104820000000000070003000300037003980318017
:104830003180318031807BC000000000000000002A
:10484000000000000600060000001E000600060032
:104850000600060006003FC0000000000000000047
:10486000000000000600060000003F0003000300F7
:104870000300030003000300030003003E000000E8
:1048800000000000700030003000378036003C002F
:104890003C003600330077C000000000000000003C
:1048A000000000001E0006000600060006000600CC
:1048B0000600060006003FC00000000000000000E7
:1048C000000000000000000000007F8036C036C0FD
:1048D00036C036C036C076E00000000000000000A0
:1048E00000000000000000000000770039803180E7
:1048F0003180318031807BC000000000000000006A
:10490000000000000000000000001F00318060C0B7
:1049100060C060C031801F00000000000000000087
:10492000000000000000000000007700398030C067
:1049300030C030C039803700300030007C000000CB
:10494000000000000000000000001DC033806180F6
:104950006180618033801D800180018007C000007C
:10496000000000000000000000007B801CC0180058
:104970001800180018007F00000000000000000070
:10498000000000000000000000001F8031803C009B
:104990001F00038031803F00000000000000000085
:1049A000000000001800180018007F001800180010
:1049B0001800180018800F00000000000000000020
:1049C0000000000000000000000073803180318092
:1049D0003180318033801DC00000000000000000E5
:1049E000000000000000000000007BC0318031802A
:1049F0001B001B000E000E00000000000000000065
:104A000000000000000000000000F1E060C064C091
:104A10006EC03B803B803180000000000000000041
:104A2000000000000000000000007BC01B000E0022
:104A30000E000E001B007BC0000000000000000004
:104A40000000000000000000000079E030C0198084
:104A500019800B000F00060006000C003E0000004D
:104A6000000000000000000000003F8021800300E3
:104A70000E00180030803F800000000000000000A1
:104A80000000000006000C000C000C000C000C00E4
:104A900018000C000C000C000C00060000000000C8
:104AA00000000000060006000600060006000600E2
:104AB00006000600060006000600060000000000D2
:104AC000000000000C0006000600060006000600BC
:104AD000030006000600060006000C0000000000AF
:104AE000000000000000000000000000180024800A
:104AF00003000000000000000000000000000000B3
:104B000000000000000000000000000000000000A5
:104B10000000000000000000000000000000000095
:104B20000000000000000000000000000700070077
:104B3000070007000700070007000200020000004E
:104B40000000070007000000000000000000000057
:104B50000000000000001CE01CE01CE008400840D1
:104B600008400000000000000000000000000000FD
:104B7000000000000000000000000CC00CC00CC0D1
:104B80000CC00CC03FF03FF00CC00CC03FF03FF039
:104B90000CC00CC00CC00CC00CC000000000000019
:104BA00000000300030007E00FE0186018001F007A
:104BB0000FC000E0186018601FC01F8003000300D2
:104BC0000300000000000000000000001C002200A4
:104BD000220022001C6001E00F803C0031C0022056
:104BE0000220022001C000000000000000000000C0
:104BF000000000000000000003E00FE00C000C00CB
:104C000006000F301FF019E018C01FF007B00000B9
:104C10000000000000000000000000000000038011
:104C2000038003800100010001000000000000007B
:104C30000000000000000000000000000000000074
:104C40000000000000C000C001800180018003005E
:104C500003000300030003000300018001800180C2
:104C600000C000C000000000000000000C000C00AC
:104C70000600060006000300030003000300030013
:104C800003000600060006000C000C0000000000F7
:104C9000000000000300030003001B601FE007800A
:104CA00007800FC00CC000000000000000000000E2
:104CB00000000000000000000000000000000000F4
:104CC00003000300030003003FF03FF00300030074
:104CD00003000300000000000000000000000000CE
:104CE00000000000000000000000000000000000C4
:104CF0000000000000000000038003000300060025
:104D00000600040000000000000000000000000099
:104D100000000000000000003FE03FE00000000055
:104D20000000000000000000000000000000000083
:104D30000000000000000000000000000000000073
:104D400000000000000000000380038003800000DA
:104D5000000000000000000000000060006000C0D3
:104D600000C000C0018001800300030006000600AF
:104D70000C000C000C0018001800000000000000DF
:104D8000000000000F801FC018C03060306030602D
:104D9000306030603060306018C01FC00F8000008D
:104DA00000000000000000000000000003001F00E1
:104DB0001F000300030003000300030003000300BF
:104DC00003001FE01FE000000000000000000000E2
:104DD000000000000F801FC038E03060006000C09D
:104DE0000180030006000C0018003FE03FE00000D7
:104DF0000000000000000000000000000F803FC025
:104E000030E0006000E007C007C000E00060006024
:104E100060E07FC03F800000000000000000000054
:104E20000000000001C003C003C006C00CC00CC0DD
:104E300018C030C03FE03FE000C003E003E00000E6
:104E40000000000000000000000000001FC01FC0A4
:104E5000180018001F801FC018E00060006000608C
:104E600030E03FC01F800000000000000000000094
:104E70000000000003E00FE01E001800380037803B
:104E80003FC038E03060306018E01FC0078000008D
:104E90000000000000000000000000003FE03FE0D4
:104EA0003060006000C000C000C00180018001804F
:104EB00003000300030000000000000000000000E9
:104EC000000000000F801FC038E0306038E01FC0D5
:104ED0001FC038E03060306038E01FC00F80000035
:104EE0000000000000000000000000000F001FC0D4
:104EF00038C03060306038E01FE00F6000E000C074
:104F000003C03F803E0000000000000000000000E1
:104F1000000000000000000000000000038003808B
:104F20000380000000000000038003800380000075
:104F30000000000000000000000000000000000071
:104F40000000000001C001C001C00000000000001E
:104F500003800300060006000400000000000000BB
:104F60000000000000000000003000F003C0070057
:104F70001C0078001C00070003C000F00030000097
:104F80000000000000000000000000000000000021
:104F9000000000007FF07FF0000000007FF07FF055
:104FA0000000000000000000000000000000000001
:104FB000000000000000000030003C000F000380F3
:104FC00000E0007800E003800F003C0030000000AB
:104FD00000000000000000000000000000000F8042
:104FE0001FC018601860006001C00380030000004B
:104FF00000000700070000000000000000000000A3
:105000000000000003800C8008401040104011C0D8
:1050100012401240124011C01000080008400780E2
:1050200000000000000000000000000000001F80E1
:105030001F80038006C006C00CC00C601FE01FE08C
:105040003030787878780000000000000000000020
:105050000000000000003F803FC01860186018E0AA
:105060001FC01FE01870183018303FF03FE00000FC
:10507000000000000000000000000000000007B079
:105080000FF01C7038303000300030003000383005
:105090001C700FE007C000000000000000000000CE
:1050A0000000000000007F807FC030E030703030B2
:1050B000303030303030307030E07FC07F800000E2
:1050C00000000000000000000000000000003FF0B1
:1050D0003FF01830183019801F801F801980183059
:1050E00018303FF03FF0000000000000000000001A
:1050F0000000000000003FF03FF018301830198029
:105100001F801F801980180018003F003F0000001A
:10511000000000000000000000000000000007B0D8
:105120001FF0187030303000300031F831F8303076
:1051300018301FF007C00000000000000000000051
:105140000000000000003CF03CF01860186018609F
:105150001FE01FE01860186018603CF03CF0000091
:1051600000000000000000000000000000001FE040
:105170001FE003000300030003000300030003001B
:1051800003001FE01FE0000000000000000000001E
:1051900000000000000003F803F8006000600060F9
:1051A000006030603060306030E03FC00F80000051
:1051B00000000000000000000000000000003EF8B9
:1051C0003EF818E019801B001F001D8018C018C091
:1051D00018603E783E38000000000000000000002B
:1051E0000000000000003F003F000C000C000C001D
:1051F0000C000C000C300C300C303FF03FF0000085
:1052000000000000000000000000000000007878AE
:10521000787838703CF034B037B037B03330333052
:1052200030307CF87CF80000000000000000000036
:1052300000000000000039F03DF01C601E601E60A0
:105240001B601B6019E019E018E03EE03E600000C2
:1052500000000000000000000000000000000780C7
:105260000FC01CE0387030303030303030303870A3
:105270001CE00FC0078000000000000000000000DC
:105280000000000000003FC03FE0187018301830E8
:1052900018701FE01FC0180018003F003F000000FA
:1052A0000000000000000000000000000000078077
:1052B0000FC01CE038703030303030303030387053
:1052C0001CE00FC0078007B00FF00CE000000000EA
:1052D0000000000000003FC03FE018701830187058
:1052E0001FE01FC018E0186018703E383E1800001C
:1052F00000000000000000000000000000000FB0EF
:105300001FF03870303038001F8007E000703030F8
:1053100038703FE037C000000000000000000000CF
:105320000000000000003FF03FF0333033303330F6
:10533000030003000300030003000FC00FC00000C0
:1053400000000000000000000000000000003CF031
:105350003CF01860186018601860186018601860D9
:105360001CE00FC0078000000000000000000000EB
:1053700000000000000078F078F03060306018C065
:1053800018C00D800D800D80070007000700000089
:1053900000000000000000000000000000007C7C15
:1053A0007C7C301833983398339836D816D01C70DC
:1053B0001C701C701830000000000000000000008D
:1053C00000000000000078F078F0306018C00D8018
:1053D000070007000D8018C0306078F078F00000FA
:1053E00000000000000000000000000000003CF091
:1053F0003CF018600CC00780078003000300030026
:1054000003000FC00FC000000000000000000000FB
:105410000000000000001FE01FE0186018C00180BD
:105420000300030006000C6018601FE01FE000008E
:1054300000000000000000000000000003C003C0E6
:105440000300030003000300030003000300030044
:10545000030003000300030003C003C000000000BA
:105460000000180018000C000C000C0006000600DC
:10547000030003000180018000C000C000C0006084
:105480000060000000000000000000000F000F009E
:1054900003000300030003000300030003000300F4
:1054A00003000300030003000F000F0000000000D2
:1054B00000000000020007000D8018C030602020AE
:1054C00000000000000000000000000000000000DC
:1054D00000000000000000000000000000000000CC
:1054E00000000000000000000000000000000000BC
:1054F0000000000000000000000000000000FFFCB1
:10550000FFFC000004000300008000000000000019
:10551000000000000000000000000000000000008B
:10552000000000000000000000000000000000007B
:10553000000000000FC01FE000600FE01FE03860B7
:1055400030E03FF01F70000000000000000000008D
:1055500000000000700070003000300037803FE035
:10556000386030303030303038607FE07780000095
:10557000000000000000000000000000000000002B
:105580000000000007B01FF018303030300030004D
:1055900038301FF00FC000000000000000000000C5
:1055A00000000000007000700030003007B01FF0F5
:1055B000187030303030303038701FF807B80000C5
:1055C00000000000000000000000000000000000DB
:1055D0000000000007801FE018603FF03FF030003F
:1055E00018301FF007C0000000000000000000009D
:1055F0000000000003F007F0060006001FE01FE0B7
:10560000060006000600060006001FE01FE000007E
:10561000000000000000000000000000000000008A
:105620000000000007B81FF81870303030303030FC
:1056300018701FF007B0003000700FE00FC00000BE
:105640000000000038003800180018001BC01FE0E0
:105650001C6018601860186018603CF03CF0000096
:105660000000000000000000000000000300030034
:10567000000000001F001F000300030003000300E0
:1056800003001FE01FE00000000000000000000019
:105690000000000003000300000000001FC01FC046
:1056A00000C000C000C000C000C000C000C000C0FA
:1056B00001C03F803F0000000000000038003800BB
:1056C000180018001BE01BE01B001E001E001B0042
:1056D000198039F039F000000000000000000000DF
:1056E000000000001F001F00030003000300030070
:1056F000030003000300030003001FE01FE000009D
:105700000000000000000000000000000000000099
:10571000000000007EE07FF0333033303330333030
:1057200033307BB87BB800000000000000000000B0
:105730000000000000000000000000003BC03FE04F
:105740001C6018601860186018603CF03CF00000A5
:105750000000000000000000000000000000000049
:105760000000000007801FE018603030303030301B
:1057700018601FE00780000000000000000000002B
:1057800000000000000000000000000077807FE0C3
:10579000386030303030303038603FE037803000B3
:1057A00030007C007C0000000000000000000000D1
:1057B0000000000007B81FF818703030303030306B
:1057C00018701FF007B00030003000F800F800003B
:1057D0000000000000000000000000003CE03DF080
:1057E0000F300E000C000C000C003FC03FC000004A
:1057F00000000000000000000000000000000000A9
:105800000000000007E01FE018601E000FC001E06C
:1058100018601FE01F800000000000000000000072
:105820000000000000000C000C000C003FE03FE016
:105830000C000C000C000C000C300FF007C0000036
:105840000000000000000000000000000000000058
:105850000000000038E038E0186018601860186038
:1058600018E01FF00F7000000000000000000000B2
:1058700000000000000000000000000078F078F058
:10588000306018C018C00D800D80070007000000B0
:105890000000000000000000000000000000000008
:1058A0000000000078F078F03260326037E01DC010
:1058B0001DC018C018C0000000000000000000005B
:1058C0000000000000000000000000003CF03CF080
:1058D0000CC00780030007800CC03CF03CF00000C7
:1058E00000000000000000000000000000000000B8
:1058F0000000000078F078F0306018C018C00D800B
:105900000F800700060006000C007F007F000000EB
:105910000000000000000000000000001FE01FE089
:1059200018C00180030006000C601FE01FE00000AB
:1059300000000000000000000000000001C003C0E3
:105940000300030003000300030007000E0007002C
:10595000030003000300030003C001C000000000B7
:105960000000000003000300030003000300030025
:10597000030003000300030003000300030003000F
:105980000300030000000000000000001C001E00D7
:105990000600060006000600060007000380070058
:1059A00006000600060006001E001C0000000000A5
:1059B00000000000000000000000000000000E00D9
:1059C0003F3033F001E00000000000000000000064
:1059D0000000000000000000000000004465627547
:1059E000673A205061696E745F44726177537472D4
:1059F000696E675F454E20496E70757420657863E7
:105A00006565647320746865206E6F726D616C20CB
:105A1000646973706C61792072616E67650D0A004C
:105A2000405A00080000002094010000B004000863
:105A3000A85A00089401002064160000AC37000842
:105A40004132018210A324F48508014080140C0126
:105A5000409A080C3204A2407A802919179918112B
:105A60009918C16214297B8907013F3A220129094B
:105A70001317418D3236804A888B404A88091618A0
:105A8000C17A0F0719035A020E093DA6D99F2113A7
:105A9000AE3A130807120C13223F13080B1210130F
:085AA000024B13080E12140062
:04000005080000ED02
:00000001FF
