:020000040800F2
:10000000B8060020D5000008291800080D140008C3
:1000100000000000000000000000000000000000E0
:10002000000000000000000000000000EF1C0008BD
:100030000000000000000000651A0008F11C000824
:10004000E700000800000000E7000008E7000008E3
:10005000E7000008E7000008E7000008E7000008E4
:1000600000000000E7000008E7000008E7000008C3
:10007000E7000008E7000008E700000800000000B3
:10008000E70000080000000000000000E700000892
:1000900000000000E7000008E7000008E700000893
:1000A000E7000008E7000008E7000008E700000894
:1000B000E700000800000000000000000000000051
:1000C0000348854600F04EF8004800475D260008CA
:1000D000B80600200448804704480047FEE7FEE7D2
:1000E000FEE7FEE7FEE7FEE7611D0008C10000082D
:1000F00030B50B46014600202022012409E00D46C0
:10010000D5409D4205D31D469540491B2546954047
:1001100040191546521E002DF1DC30BD03460B433D
:100120009B0703D009E008C9121F08C0042AFAD2AD
:1001300003E00B780370401C491C521EF9D2704733
:10014000D2B201E00270401C491EFBD2704700226F
:10015000F6E710B513460A4604461946FFF7F0FFC6
:10016000204610BD064C0125064E05E0E36807CC8D
:100170002B430C3C98471034B442F7D3FFF7A4FF4D
:10018000DC280008FC28000872B6FEE770B50446BB
:1001900000F0C2F80546601C02D00448007824181C
:1001A00000F0BAF8401BA042FAD370BD0400002052
:1001B000F0B5002303249AE02A4601259D402A40F9
:1001C0007ED00E79B607B60F012E01D0022E16D1C1
:1001D00086682746B4465E00B646B7406646BE43CC
:1001E000B446CF687646B740664637438760466870
:1001F000AE430D79ED06ED0F9D40354345600D7919
:10020000ED43AD0708D0C5685F002646BE40B54344
:100210008E68BE402E43C6600D79AD07AD0F022D2E
:100220000ED1DD08AD002D18AC462D6A5E07F60E26
:100230000F27B740BD430F69B7402F4365462F6274
:1002400005685F002646BE40B5430E79B607B60F77
:10025000BE402E4306604D68AD03AD0F46D09E08EC
:10026000264DB6007519AC462D6E9E07F60E0F276B
:10027000B740BD4305273F07B84201D100270FE033
:100280001F4FB84201D101270AE01E4FB84201D1E9
:10029000022705E01C4FB84201D1032700E00527E3
:1002A000B7402F43154D664637662D684E68954317
:1002B000F60200D51543114F3D607D68954300E07F
:1002C00014E04E68B60200D515437D600B4D8035B5
:1002D0006E684F689643BF0300D516436E602E6864
:1002E0004F689643FF0300D516432E605B1C0A68D7
:1002F0001546DA4000D05FE7F0BD0000001802406C
:100300000004005000080050000C0050002A01D0EA
:1003100081617047816270470148806870470000C2
:1003200004000020024881680278891881607047C3
:100330000400002010B5084800240168821511430C
:100340000160032000F00AF8002801D0012401E038
:1003500000F028F8204610BD0020024070B50F4E76
:10036000002431780546002915D07D20C000FFF714
:10037000BFFE01460A480068FFF7BAFE00F0E8FC3D
:10038000002808D1042D06D200222946401E00F084
:100390001FF8756000E00124204670BD04000020B5
:1003A0001000002008B509480168012211430160CE
:1003B00000681040009005484038C26B01040A43B1
:1003C000C263C06B0840009008BD000040100240AE
:1003D00010B502F05FF810BD10B50F4C2168032274
:1003E0005202914301432160C11FFF39FA390ED1F6
:1003F0000A480621006848430949FFF779FE401C76
:1004000002E0002805D0401E61694905F9D40020AA
:1004100010BD032010BD000000700040100000203F
:1004200040420F00F8B50F46060043D04D4D2868F6
:100430004007400FB84213D22868C008C0003843B4
:100440002860FFF769FF044605E0FFF765FF011B21
:100450004548814261D828684007400FB842F4D12E
:100460003068424C81070DD5400704D5A0680721AC
:1004700009030843A060A0680F2109028843B168FE
:100480000843A0603078C00732D0706801280AD0D5
:1004900002280BD000280FD03449403103280ED059
:1004A000C969890704E02168890301E0216889019D
:1004B000002906DB0120F8BD21684905F8E7096A33
:1004C000EFE7A168C908C9000143A160FFF724FF55
:1004D000009006E0FFF720FF0099411A2248814270
:1004E0001BD8A068382108407168C9008842F1D142
:1004F00028684007400FB84217D91A480168C90850
:10050000C90039430160FFF707FF054607E0FFF721
:1005100003FF411B1448814201D90320F8BD114853
:1005200000684007400FB842F1D13078400706D547
:10053000A068072109038843F1680843A06000F020
:1005400031F8A1683C2289091140094A515CC90669
:10055000C90EC8400749086007480068FFF7FEFE5B
:10056000F8BD000000200240881300000010024087
:1005700070280008100000200800002006480749E5
:1005800000688968064A4904490F8900515CC90618
:10059000C90EC84070470000100000200010024043
:1005A000B028000810B5204CA068204A8006400FF3
:1005B00016D0A0688006410F501001290FD0A16805
:1005C0008906490F022912D0A0688006400F04282E
:1005D00023D0A0688006400F032821D0002010BD42
:1005E000206801218004400F8140104612E0E1683C
:1005F0008B07E1689B0F4906490F491C032B00D06C
:100600001046FFF775FDE1684904490E4843E1686B
:10061000490F491CFFF76CFD10BD0120C00310BD40
:100620007D20000210BD0000001002400024F400F4
:10063000F8B504007ED020783827C007E94D00289F
:1006400046D0A868E96838408907890F102802D089
:1006500008280BD001E0032908D0012062680004BB
:1006600082420AD129680143296015E02868800385
:100670002ED560680028DDD02AE0052301211B0467
:1006800089049A422A6802D10A432A60EAE782432F
:100690002A60286888432860606800280CD0FFF72B
:1006A0003BFE064604E0FFF737FE801B642873D844
:1006B00028688003F7D50BE0FFF72EFE064604E01E
:1006C000FFF72AFE801B6428F1D828688003F7D43E
:1006D0002078800769D5A868E96838408A0707212B
:1006E000920FC902102802D0002813D001E0022A7C
:1006F00010D0E068002846D0286888432169084364
:1007000028602868FF21013108432860FFF704FEB4
:1007100006462CE02A68520502D5E268002A89D0F4
:100720006A687F231B029A4363691B021A436A604B
:10073000002800E08DE00ED1286888432169084335
:100740002860286801218004400F8140A648FFF7F7
:10075000CFFCA6490860A6480068FFF7FFFD002807
:1007600077D122E0FFF7D8FD801B02289FD82868A8
:100770004005F7D568687F2109028843616909024D
:100780000843686011E02968FF2001308143296037
:10079000FFF7C2FD064605E098E0FFF7BDFD801BB0
:1007A000022884D828684005F7D42078914E0007A5
:1007B0002ED5A8688006400F03280AD0A06900281B
:1007C000306A16D0012108433062FFF7A5FD0746C5
:1007D0000BE0306A80071BD5A06900289FD017E086
:1007E000FFF79AFDC01B022870D8306A8007F7D542
:1007F0000EE0400840003062FFF78EFD074604E03F
:10080000FFF78AFDC01B022860D8306A8007F7D442
:10081000207840076CD5A86800278006400F042880
:1008200018D0E86BC00008D4E96B01200007014331
:10083000E963E96B0140012700916F480168C90530
:1008400019D40168821511430160FFF765FD00901E
:100850000DE083E0F06980074AD5A06800287DD0CC
:1008600046E0FFF759FD0099401A02282ED8624849
:100870000068C005F5D5A168012910D0042005291C
:10088000F16911D049084900F161F1698143F161D1
:10089000A068002816D0FFF73FFD00900EE0F06939
:1008A00001210843F061F3E70143F161F7E7FFF746
:1008B00033FD0099411A5148814265D8F06980079B
:1008C000F5D50EE0FFF728FD009007E05CE0FFF7AC
:1008D00023FD0099411A4948814255D8F0698007A3
:1008E000F5D4002F04D0E96B012000078143E963B0
:1008F000E069002873D0A9688906490F02294DD004
:10090000012636060228286805D0B0432860FFF784
:1009100003FD04463AE0B0432860FFF7FDFC0746BC
:1009200004E0FFF7F9FCC01B02282DD828688001DD
:10093000F7D4616A206AA26A0843E16A120211438D
:100940000843216B0843E9682D4A11400843E860D9
:10095000286830432860E868012100E03DE009078D
:100960000843E860FFF7D8FC044604E0FFF7D4FC36
:10097000001B022808D828688001F7D52FE0FFF770
:10098000CBFC001B022801D90320F8BD2868800198
:10099000F5D4E8681B490840E86020E00128F4D05D
:1009A000E868226A8107890F914216D17021626A34
:1009B0000140914211D17F21A26A09020140120235
:1009C00091420AD11F214904E26A0140914204D1B7
:1009D000400F216B4007884201D00120F8BD002064
:1009E000F8BD0000001002400024F40010000020B8
:1009F00008000020401002400070004088130000F2
:100A00008C80C11FFCFFFEEFF8B504000CD0606ABB
:100A1000002500280AD02561656126464036A5627A
:100A2000707F002808D00BE00120F8BD6168C81F66
:100A3000FD38F2D0E561F0E73577204600F05CF84C
:100A400002227277206801684023994301600723DE
:100A5000E1681B02994201D9002001E00120000356
:100A60000F273F02B94202D0994200D0A562FF236E
:100A70006168053319402127A368BF023B40194331
:100A800023691340227D1943D207D20F114301235A
:100A9000A2695B021A401143E26938231A401143EC
:100AA000226A80231A401143A26A9B011A40114313
:100AB00022681160A1690422090C1140626A1023A6
:100AC0001A401143626B08231A4011430F23E26856
:100AD0001B021A40114301221203104001432068F7
:100AE00041602068C16952109143C16125660120AF
:100AF00070770020F8BD000010B586B004461421C0
:100B00006846FFF724FB1249206888421DD111482E
:100B1000026881140A4302600068084005900D488D
:100B20004038416B012211434163406B69461040DC
:100B30000590094800900220019000200290039047
:100B4000049005200007FFF733FB06B010BD00003E
:100B5000003001404010024002180000FFB504467A
:100B600083B0012001900020254640350090287F69
:100B70000C9F1E4601280FD001202877FFF7CCFBE1
:100B80000290687F616801280DD0CA1FFD3A08D124
:100B9000A168002905D102E0022007B0F0BD0428B9
:100BA00001D00220D1E00498002820D00598002828
:100BB0001DD0002E1BD0687F042801D00520687747
:100BC0000020206605992164EE80AE800499A1631F
:100BD000E687A687E064206507210120E268090214
:100BE00000038A422268536803D9834302E001204C
:100BF000ABE00343536020680268520603D40268E6
:100C000040231A430260E0688842606844D90028A3
:100C100001D0012E39D1A06B21680088C860A06B7B
:100C2000801CA063E08F401EE0872EE02068816872
:100C3000890710D5E18F00290DD0019901290AD12A
:100C4000A16B0988C160A06B801CA063E08F401E6F
:100C5000E0870020019020688168C9070DD0E988ED
:100C600000290AD0C068216C0880206C801C206498
:100C7000E888401EE88001200190FFF74DFB0299B3
:100C8000401AB84201D3781C5ED1E08F0028CDD144
:100C9000E8880028CAD146E0002801D0012E3CD1C6
:100CA000A06B216800780873A06B401CA063E08FE4
:100CB000401EE08731E020688168890710D5E18F08
:100CC00000290DD0019901290AD1A16B097801737E
:100CD000A06B401CA063E08F401EE08700200190C5
:100CE00020688168C9070DD0E98800290AD0007BF7
:100CF000216C0870206C401C2064E888401EE8804D
:100D000001200190FFF708FB0299401AB84202D374
:100D1000781C02D018E0002F16D0E08F0028CAD12E
:100D2000E8880028C7D139462046029A00F0E0FE44
:100D3000002803D001200090202020660120687741
:100D400000202877009828E703200090F6E70000AD
:100D5000094910B5401E884201D9012010BD074C39
:100D600060610321081F01F095FB0020A0610720AE
:100D70002061002010BD0000FFFFFF0000E000E048
:100D800070B5034620331A7F012A4BD001221A770F
:100D90000325CA682D02AA438D6800682A430125ED
:100DA000AD02AA434D6800242A430125ED02AA435F
:100DB0000D682A4301252D03AA430D692A43012505
:100DC0006D03AA434D692A430125AD03AA430D6B68
:100DD0002A430F252D04AA430D8B2D042A43124DBF
:100DE000A84204D101263607B243CE693243A84255
:100DF00014D10F252D05AA430D8D2D052A4301255C
:100E00002D06AA430D6A2A4301256D06AA434D6AA1
:100E1000C96A2A4301256D07AA430A4342641C7725
:100E2000002070BD022070BD002C0140F0B50346CB
:100E300020331A7F012A24D001221A7702225A77FE
:100E400004686268A568104FBC4205D116460F229F
:100E5000120596434A6832437026B2430E68164321
:100E600066600068B84202D0084A904204D18022ED
:100E700089689543294381600120587700201877BD
:100E8000F0BD0220F0BD0000002C01400004004035
:100E900070B5040005D025462035687F002802D0B3
:100EA00006E0012070BD00202877204600F016F8EB
:100EB00002206877211D206800F054FF0122403491
:100EC0002272AA77EA7722706270A270E2702271B1
:100ED0006271A271E2716A77002070BD08B5104A94
:100EE00001681048914202D10268C11404E00E4A20
:100EF000914207D10268C9130A43026000680840A2
:100F0000009008BD094A914203D1026801214904B9
:100F1000F2E7074A9142F4D1026801218904EBE724
:100F2000002C0140401002400020004000440140DD
:100F300000480140F8B5054604462035287F0026C4
:100F4000012817D001272F77022068772268906840
:100F50002F4B1840FF231B029843906008685028CD
:100F600038D00EDC20284FD006DC00284CD01028CA
:100F70001ED149E00220F8BD302845D0402817D1C5
:100F80003AE060282ED0702818D001221203801A6F
:100F90000FD090420CD1CB684A688968206800F075
:100FA0002AFF20688168012292031143816000E0DA
:100FB00001266F77002028773046F8BDCB684A6855
:100FC0008968206800F017FF21688868772210433D
:100FD0008860EEE7CA684968206801F071F850211E
:100FE000206806E0CA684968206801F07AF8602144
:100FF000206800F00BFFDCE7CA684968206801F050
:101000005FF840212068F4E7226801461046F0E7C7
:1010100088FFCEFFF0B587B0044614216846FFF77D
:1010200096F82C4B2168052200252B480126022426
:1010300012072A4F99421AD1416B31434163416BE8
:1010400031400591416B21434163406B694620402B
:101050000590C02031C16946104604960395FFF7FC
:10106000A7F8029500960496039501942EE01C4B78
:10107000994212D1416B31434163406B6946C007CD
:10108000C00F0590102031C10420049069460395DB
:101090001046FFF78DF807B0F0BD124A914207D114
:1010A000416B21434163406B20400590901509E05E
:1010B0000D4A9142EFD1416B21434163406B204087
:1010C00005905015694631C1039504946946384628
:1010D000DFE7000000040040001002400004005060
:1010E000002000400044014000480140F8B504469B
:1010F0000020264620360090307F0D4601280CD077
:101100000120082730770C2A48D008DC002A10D0AC
:10111000042A1ED0082A06D130E00220F8BD102A89
:1011200052D0142A60D0012000900020307700981F
:10113000F8BD206800F074FE206881693943816140
:1011400020688169042291438161206881692A694C
:1011500011E0206800F0A2FE206881690122D2021D
:101160001143816120688169521091438161206837
:1011700081692A69120211438161D6E7206800F073
:10118000CBFE2068C1693943C1612068C16904226E
:101190009143C1612068C1692A6912E0206800F0AA
:1011A000F9FE2068C1690122D2021143C1612068A1
:1011B000C269012189028A43C2612068C1692A6922
:1011C00012021143C161B0E7206800F019FF2068E6
:1011D000416D394341652068426D04218A4342656F
:1011E0002068416D2A6912E0206800F037FF20680E
:1011F000416D0122D202114341652068426D0121F7
:1012000089028A4342652068416D2A6912021143AE
:1012100041658AE770B5040005D025462035687F12
:10122000002802D006E0012070BD0020287720466B
:1012300000F016F802206877211D206800F092FD6A
:10124000012240342272AA77EA7722706270A2707B
:10125000E27022716271A271E2716A77002070BD42
:1012600008B500680549884207D10548C26B0221CC
:101270000A43C263C06B0840009008BD00040040F0
:101280000010024030B505460223203000290ED060
:10129000042911D02C464034082912D00C2915D02D
:1012A000102918D0E278012A1AD0012030BD827F9F
:1012B000012AFAD1837714E0C27F012AF5D1C377DE
:1012C0000FE02278012AF0D123700AE06278012A27
:1012D000EBD1637005E0A278012AE6D1A37000E0AB
:1012E000E3700122286800F079FD114A28689042D5
:1012F00005D01049884202D00F49884204D1416C80
:101300000123DB031943416428680121904202D084
:101310000A4A904207D18268094B1A40062A05D032
:10132000DB1F9A4202D002680A430260002030BDEF
:10133000002C0140004401400048014000040040EE
:101340000700010070B5040005D025468035A86867
:10135000002802D006E0012070BD00202871204640
:1013600000F026F82420A860206801684908490098
:101370000160204600F060FF0128EDD0A06A00283F
:1013800002D0204600F0C0FE206841680922D20247
:1013900091434160206881682A22914381602068DE
:1013A0000168012211430160204600F013FF70BD67
:1013B00010B586B0044614216846FEF7C8FE1149F0
:1013C000206888421CD11048C26B012149040A439D
:1013D000C263C26B0A400592426B01210A43426319
:1013E000406B0491084005900C2000900220019071
:1013F000002002900390052069460007FEF7D8FE02
:1014000006B010BD0044004000100240FEE700009E
:10141000F0B587B014216846FEF799FE2648426B66
:1014200002210A434263426B0A400592426B042147
:101430000A434263426B0A400592416B01242143F7
:101440004163406B1D4E2040E50305900022294674
:101450003046FEF75BFF05273F0700220121384693
:10146000FEF754FF002208211548FEF74FFF0095B4
:10147000002501940294694630460395FEF798FED4
:10148000009401946946384603950294FEF790FE55
:10149000202000906946019502943846FEF788FEA8
:1014A0000820009001946946039502940448FEF7D1
:1014B0007FFE07B0F0BD00000010024000080050A1
:1014C0000004005010B511480F490160FF2105319B
:1014D000416000210722816012020161C260012285
:1014E000416152028261016210224162C2618162E5
:1014F0000722C262016308214163FFF785FA0028D1
:1015000001D0FEF741FE10BD003001401400002064
:1015100010B588B01C216846FEF719FE1748164919
:10152000016000243F218460416015490461C1606D
:1015300080218161FFF7ACFC002801D0FEF724FE7A
:101540000E48FFF767FE002801D0FEF71DFE602061
:1015500000907D20C000019002940022694604940E
:101560000648FFF7C3FD002801D0FEF70DFE034833
:10157000FFF750FD08B010BD002000401001002012
:101580001F4E000010B594B01C210DA8FEF7DFFD22
:1015900034216846FEF7DBFD224821490160002422
:1015A0003F218460416004611F494461C160802122
:1015B0008161FFF76DFC002801D0FEF7E5FD1948B9
:1015C000FFF728FE002801D0FEF7DEFD60200D9019
:1015D0007D20C00013940E900F94109411941294D7
:1015E00000220DA90F48FFF781FD002801D0FEF76A
:1015F000CBFD0120009440030194029405900394D4
:101600000494069469460C940648FFF7B9FB002839
:1016100001D0FEF7B9FD0348FFF7FCFC14B010BD84
:10162000004401405C0100201F4E000010B594B042
:101630001C210DA8FEF78BFD34216846FEF787FDBF
:1016400022482149016000243F21846041600461F7
:101650001F494461C16080218161FFF719FC0028A6
:1016600001D0FEF791FD1948FFF7D4FD002801D005
:10167000FEF78AFD60200D907D20C00013940E902F
:101680000F9410941194129400220DA90F48FFF7A3
:101690002DFD002801D0FEF777FD012000944003C6
:1016A00001940294059003940494069469460C9462
:1016B0000648FFF765FB002801D0FEF765FD0348EB
:1016C000FFF7A8FC14B010BD00480140A80100209D
:1016D0001F4E000010B588B00024059406941848E9
:1016E00003940494009401941449029401603F21EE
:1016F00084604160046113494461C160802181615B
:10170000FFF7C6FB002801D0FEF73EFD01200003D5
:10171000039003A90A48FFF70DFC002801D0FEF74B
:1017200033FD00940194694605480294FFF77EFB5F
:10173000002801D0FEF728FD08B010BD002C0140A4
:10174000780000200F27000010B58AB0002407940D
:1017500008941C2168460994FEF7F9FC21482049A9
:1017600001603F21846041601F490461C1608021A4
:101770008161FFF74FFD002801D0FEF705FD0794BA
:1017800007A918480994FFF751FB002801D0FEF77C
:10179000FBFC602000907D20C0000190029400229C
:1017A000694604940F48FFF7A1FC002801D0FEF71A
:1017B000EBFC042269460B48FFF798FC002801D097
:1017C000FEF7E2FC082269460648FFF78FFC002876
:1017D00001D0FEF7D9FC0348FFF71CFC0AB010BD8E
:1017E00000040040C40000201F4E000010B50D484A
:1017F0000B490160E1214902416000218160C16023
:1018000001618161C16101620C22416242618162B8
:10181000FFF798FD002801D0FEF7B6FC10BD0000D0
:1018200000440040F4010020FEE700001CB510A1B8
:1018300003C900900191082000F040F90522694693
:10184000302000F0CFF805226946102000F05AF849
:10185000002069460A5CA52A03D1401CC0B20528B5
:10186000F8D3052801D001201CBD00201CBD0000BC
:10187000A5A5A5A5A500000010B500F09FF80121C1
:101880000022C9030448FEF741FD0122052011464C
:101890000007FEF73BFD10BD0008005070B50124A5
:1018A000164DE403002221462846FEF72FFD0F21A6
:1018B000202000F0BBF80121212000F0B7F8012121
:1018C000222000F0B3F82821252000F0AFF80F21E6
:1018D000262000F0ABF82021312000F0A7F80522E7
:1018E00007492A2000F07EF8012221462846FEF70B
:1018F0000DFD0120FEF74AFC70BD000000080050FD
:10190000D5280008F8B5044615460F4605200022E4
:1019100001210007FEF7FAFC21460B4800F0D6F93A
:101920000646002406E0FF21074800F0CFF93855AD
:10193000641CE4B2AC42F6D3012205201146000734
:10194000FEF7E4FC3046F8BD1400002070B5052514
:1019500004462D07002201212846FEF7D7FC214628
:10196000074800F0B3F9FF21054800F0AFF904463D
:10197000012211462846FEF7C9FC204670BD000032
:101980001400002070B50546102000F097F80720DD
:10199000FFF7DCFF04460146272000F047F8600609
:1019A0000AD5202229466120FFF7ACFFFF21E22063
:1019B00000F03CF8002070BD012070BD70B5084CEF
:1019C000206801684025A943016000202061606112
:1019D0002046FFF719F8206801682943016070BDAF
:1019E00014000020F8B5044616460D4605200022D6
:1019F00001210007FEF78AFC21460B4800F066F93A
:101A00000746002406E0297807486D1C00F05EF9BF
:101A1000641CE4B2B442F6D301220520114600074B
:101A2000FEF774FC3846F8BD1400002070B505259B
:101A30000E4604462D07002201212846FEF766FCCB
:101A40002146074800F042F904463146044800F0B8
:101A50003DF9012211462846FEF758FC204670BD8C
:101A600014000020704710B503460078012202E000
:101A70009C5C6040521C8A42FADB10BD10B50E48D7
:101A8000FFF780FF002815D10B4C2078A52811D135
:101A90006078A5280ED10F212046FFF7E4FFE17BF7
:101AA000884207D120460D22A11C2030FEF736FBCC
:101AB000012010BD002010BD8802002030B50A4969
:101AC0000B681C68402294431C600B681C68074D1F
:101AD0002C401C600B681C6804431C60086801688B
:101AE0001143016030BD000014000020C7FF00005A
:101AF000F8B50F460B461546009203210446002216
:101B0000C90200F01BF82026002812D13B46002213
:101B100080212046009500F07DF8002809D103219E
:101B20003B46002249022046009500F007F80028B5
:101B300003D0206E304320660320F8BDFFB585B08A
:101B40000E460446002069460E9D17460871FEF7B2
:101B5000E3FB411B0898451AFEF7DEFB0390206863
:101B600023210C3002902A4800684843000D684346
:101B700046E003204002864206D1002F04D102989D
:101B800001786846017100790898401C39D0FEF749
:101B9000C3FB0399401AA84205D2002D03D0009838
:101BA00000282BD02BE020684168E022914341605F
:101BB0006068C11FFD390CD10121A068C9038842AA
:101BC00002D04911884204D1206801684022914323
:101BD00001600120A16A4003814207D121680A689F
:101BE00082430A6021680A6802430A600120403487
:101BF000607700202077032009B0F0BD0025401E4B
:101C00000090206880683040B842B2D10020F3E7ED
:101C100010000020FFB581B01E4604460A9DFEF765
:101C20007BFB401B351AFEF777FB0746264800680A
:101C30004001000D684339E0701C38D0FEF76CFBA2
:101C4000C01BA84205D2002D03D0009800282BD03D
:101C50002BE020684168E022914341606068C11F29
:101C6000FD390CD10121A068C903884202D0491175
:101C7000884204D12068016840229143016001201C
:101C8000A16A4003814207D121680A6882430A6041
:101C900021680A6802430A6001204034607700200E
:101CA0002077032005B0F0BD0025401E009020687D
:101CB00081680298884305D0002103988142BBD1F6
:101CC0000020EFE70121F8E7100000203EB56A464A
:101CD0001172FF24012301AA02A90094FEF73EFF1E
:101CE000002801D068460471684600793EBD7047FF
:101CF00010B5FEF717FB10BD30B591B03421684622
:101D0000FEF725FA002501200D950E950F9540024E
:101D10001095FEF761FB0224E0010390009440203F
:101D2000059008200A9080030B9007940003049507
:101D30000C90099508946846FEF77AFC002801D0BB
:101D400072B6FEE707200DA931C102210DA810953A
:101D5000FEF768FB002801D072B6FEE711B030BD77
:101D60007047000070B50268174B184E984201D0BA
:101D7000B04203D17024A2434C682243144C154D49
:101D8000984208D0B04206D0134EB04203D0A042D1
:101D900001D0A84204D103263602B243CE683243B2
:101DA0008026B2434E69324302608A68C2620A6882
:101DB0008262984203D0A04201D0A84201D10969B1
:101DC00001630121416170BD002C0140000400400D
:101DD00000440140004801400020004010B5CB06FF
:101DE000DB0E0121046A99408C430462016A9A4027
:101DF0001143016210BD30B58468FF252D021B021E
:101E00001343AC430B432343836030BD8268034BD1
:101E10001A400A4307210A43826070478FFFCFFFB1
:101E2000F0B5026A520852000262056A436882698C
:101E3000164C184E224092080C689200144302225D
:101E400095438A682A43124DA84204D0B04202D07A
:101E5000114FB84206D10827BA43CF68174304226E
:101E600097433A46A84204D0B04202D00A4DA84255
:101E700006D103252D02AB434D691D438B692B43CE
:101E800043608461496841630262F0BD8FFFFEFFD9
:101E9000002C0140004401400048014070B5026A36
:101EA00010239A430262046A43688269164D2A40ED
:101EB00003252D02AA430D682D02154320229443C9
:101EC0008A6812012243114CA04208D11446CA6804
:101ED0008026B443120122434024A24305E00C4C67
:101EE000A04202D00B4CA04208D10324A402A34379
:101EF0004C69A4001C438B699B00234343608561AC
:101F000049688163026270BDFF8FFFFE002C0140B3
:101F1000004401400048014070B5026AFF230133CC
:101F20009A430262046A4368C269164D2A409208C5
:101F30000D68920015430122520294438A681202EE
:101F40002243114CA04208D11446CA68C614B443B7
:101F5000120222430415A24305E00C4CA04202D019
:101F60000B4CA04208D103242403A3434C69240151
:101F70001C438B691B0123434360C5614968C163EE
:101F8000026270BD8FFFFEFF002C01400044014043
:101F90000048014030B5026A01231B039A430262E4
:101FA000046A4568C269124B1A4003231B029A4314
:101FB0000B681B0213430122520394438A681203E5
:101FC00022430C4CA04205D00B4CA04202D00B4C3B
:101FD000A04206D12C460125AD03AC434D69AD01AD
:101FE00025434560C36149680164026230BD000059
:101FF000FF8FFFFE002C01400044014000480140DB
:1020000070B5026A01263604B2430262036A42686E
:10201000446D0E4D2C400D6825437400A3430C897C
:1020200024041C430A4B984205D00A4B984202D024
:10203000094B984203D14B69B2431B021A434260D9
:10204000456549688165046270BD00008FFFFEFF31
:10205000002C0140004401400048014070B5026A74
:1020600001231B059A430262036A4268456D104CC6
:1020700025400C6824022C4301256D05AB430D89D6
:102080002D051D430B4B984205D00B4B984202D0B7
:102090000A4B984206D101261346B6044A69B34357
:1020A00092021A43426044654968C165056270BD89
:1020B000FF8FFFFE002C014000440140004801401A
:1020C00030B5036A046A6408640004628469F02518
:1020D000AC43120122430A24A3430B4382610362EF
:1020E00030BD30B5036A1024A34303628469036AD8
:1020F0000F252D031203AC432243A024A34309015F
:1021000019438261016230BD10B5018DC90707D046
:1021100001684A6801235B049A43C36A1A434A6010
:10212000018D890707D501684A6801231B049A437A
:10213000036B1A434A60018D490707D501684A6855
:1021400001239B049A43436B1A434A60018D09079C
:1021500007D501684A680123DB039A43836B1A435E
:102160004A60018DC90607D50268916801231B03E7
:102170009943C36B19439160018D890607D50168A6
:102180008A6801235B039A43036C1A438A60018DBA
:10219000490612D503685A6801210905446C8A432F
:1021A00022435A60426C8A4207D102685168032375
:1021B0005B059943836C19435160018D090607D56E
:1021C00001684A680123DB04C06C9A4302434A60F9
:1021D00010BD0000FEB50646002580360446356178
:1021E000FEF79AF8019020680068124F000709D5A1
:1021F00001210097002249052046019B00F0D0F8FC
:1022000000280DD12068006840070BD501210097F8
:10221000002289052046019B00F0C2F8002801D069
:102220000320FEBD2020B060F060E56625673571B3
:102230000020FEBDFFFFFF01F8B50446806821695C
:10224000E269084361690025114322680843116867
:102250004B4B19400143116020684168032212036F
:102260009143E26811434160A169206A08432168F3
:102270008A68444B1A4002438A602068C16A626AD5
:10228000090909011143C1623F492068884211D1FF
:102290003E4840698007800F0FD0012806D00228F1
:1022A00002D003280BD103E0022109E0042107E05A
:1022B000082105E03649884201D1002100E01021C3
:1022C0000120E369C003334A334E344F834227D1A0
:1022D000002906D0022907D0042907D008293FD1B8
:1022E00008E0FEF74BF903E0104603E0FEF75AF969
:1022F00000283AD0616A4900715AFDF7F9FE616819
:1023000040004A088018FDF7F3FE01461039B94233
:1023100026D82249491C01400007400F084322E00B
:10232000002906D0022907D0042907D0082917D18F
:1023300008E0FEF723F903E0104603E0FEF732F968
:10234000002812D0616A4900715AFDF7D1FE616818
:102350004A088018FDF7CCFE01461039B94201D970
:10236000012502E080B22168C8602046012140308A
:102370004185018500206067A0672846F8BD000000
:10238000F369FFCFFFF4FF11003801404010024015
:10239000004400400024F40058280008EFFF00002B
:1023A000FFB581B005461746044680350A9E54E0C5
:1023B000701C52D0FDF7B0FF0499401AB0422FD8DC
:1023C000002E2DD020680168490746D5C069C0435A
:1023D000000542D401202168C0020862EFF310809A
:1023E000012181F3108821680B68FF22A1329343F9
:1023F0000B6080F31088EFF31080012181F31088C7
:1024000021688A68520852008A6080F31088202070
:10241000A860E860286100202871032005B0F0BDA5
:10242000EFF31080012181F3108821680A68FF23EF
:10243000A1339A430A6080F31088EFF310800121E2
:1024400081F3108821688A68520852008A6080F3FC
:1024500010882020A860E860DDE72068C169029844
:10246000884304D00020B842A2D00020D6E7012043
:10247000F9E700000FB410B503A9044B044A029811
:1024800000F03AF810BC08BC04B018474926000810
:10249000000000208307FF22DB0E9A408907090E07
:1024A0009940002808DB830809489B001B1818681E
:1024B00090430843186070470007000F08388308EE
:1024C00004489B001B18D86990430843D8617047A3
:1024D00000E400E000ED00E002E008C8121F08C1BF
:1024E000002AFAD170477047002001E001C1121F95
:1024F000002AFBD170470000FFB58DB004460025CF
:1025000006E025280AD0109A0F999047641C6D1C8C
:1025100020780028F5D1284611B0F0BD0027012110
:10252000484A009700E00743641C23780846203B94
:1025300098401042F7D120782E2817D10420074365
:102540006078641C2A280CD10E98641C02C8009183
:102550000E900BE000990A22514330394018641C58
:1025600000902078014630390929F3D920780028D5
:10257000D1D0642808D0692806D075281ED0109ABA
:102580000F9990476D1C5BE00A200E99019001C9DC
:102590000E91002802DA40422D2102E0390504D5CF
:1025A0002B216A461172012103E0F90704D0202192
:1025B000F7E70BAE0B910DE00021FAE70A200E9928
:1025C000019001C90E91F7E70199FDF791FD3031B6
:1025D000761E31700028F7D103A8801B20300190AF
:1025E000780701D5009801E0012000900199884208
:1025F00001DD401A00E000200027009006E002A85C
:10260000109AC05D0F9990476D1C7F1C0B988742F4
:10261000F5DB04E0109A30200F9990476D1C00996B
:10262000481E00900029F5DC05E03078109A761CF1
:102630000F9990476D1C0199481E01900029F4DC08
:10264000641C65E7092801000349CA695206FCD5E4
:10265000C2B28A6270470000004400400EB5FDF728
:1026600069FEFFF749FBFEF7D3FEFEF72BFFFFF7EE
:102670006BF8FEF74DFFFEF785FFFEF7D7FFFFF77C
:10268000B5F8FFF727F83220FDF780FDFFF7F4F8E3
:102690003220FDF77BFD7D24E40005E04BA0FFF731
:1026A000E9FE2046FDF772FDFFF7C0F80028F5D1DE
:1026B0003220FDF76BFD4DA0FFF7DCFE3220FDF769
:1026C00065FDFFF7EBF851A0FFF7D4FE3220FDF7D0
:1026D0005DFD00215248FEF7D5FD04215048FEF76C
:1026E000D1FD08214E48FEF7CDFD00214D48FEF7F3
:1026F000C9FD00214C48FEF7C5FD00214B48FEF7FF
:10270000C1FD474E7D203168C00048633168886351
:102710003168C863434909684863434909684863A5
:10272000424909684863424CFFF7A8F900284AD09B
:10273000E188404827890A1815B2381803B2581999
:1027400040007D2200B2D200904201DB104602E040
:10275000642800DC00205B1B5B007D221DB2D200E0
:10276000954201DB154602E0642D00DC002523883C
:1027700032689E4693632B4B62881B6894465A636B
:102780003268A38853637D22D20080183268D063F8
:102790007D20C0002A18244800684263234A6089CB
:1027A000126850630091029062460197714622A020
:1027B000FFF760FE012208212648FDF7A7FD05204E
:1027C000FDF7E4FCB0E70022F5E70000D3B2BCFE61
:1027D000B2E9D1B0B2BBB5BD4E524632344C303105
:1027E000CEDECFDFC4A3BFE90A0000004E5246325E
:1027F000344C3031CEDECFDFC4A3BFE9D3B2BCFE50
:10280000C1ACBDD3D5FDB3A30A000000BDF8C8EB31
:10281000CAFDBEDDBDD3CAD5C4A3CABD0A0000002F
:10282000C4000020100100205C010020A80100204D
:10283000A802002024FAFFFF643A25642C202564B6
:102840002C2025642C2025642C2025642C20256434
:10285000200D0A00000400500100020004000600E0
:1028600008000A000C001000200040008000000159
:102870000000000000000000000000000000000058
:102880000000000000000000000000000000000048
:10289000010000000200000003000000040000002E
:1028A000060000000700000008000000090000000A
:1028B0000000000000000000000000000000000018
:1028C00001000000020000000300000004000000FE
:1028D000344310100134431010010000FC2800089C
:1028E0000000002014000000D8240008102900086F
:1028F00014000020A4060000E824000800000000E6
:102900000100000004000000000000000024F400AA
:04000005080000C12E
:00000001FF
